:020000040800F2
:10000000E0170020E1320008F92F0008FB2F00085C
:10001000FF2F000803300008073000080000000030
:100020000000000000000000000000000B3000088D
:100030000D300008000000000F30000811300008EB
:10004000FB320008FB320008FB320008FB320008DC
:10005000FB320008FB320008FB320008FB320008CC
:10006000E12B0008E92B0008FB320008FB320008F6
:10007000FB320008FB320008FB320008FB320008AC
:10008000FB320008FB320008FB320008FB3200089C
:10009000FB320008FB320008FB320008FB3200088C
:1000A000FB320008FB320008FB320008FB3200087C
:1000B00043250008672600088F270008FB32000848
:1000C000FB320008FB320008FB320008FB3200085C
:1000D000FB320008D52A0008FB320008FB3200087A
:1000E000FB320008FB320008FB320008FB3200083C
:1000F000FB320008FB320008FB320008FB3200082C
:10010000FB320008951E0008FB320008FB32000895
:10011000FB320008FB320008FB320008FB3200080B
:10012000FB320008FB320008FB320008FB320008FB
:10013000FB320008FB320008FB320008FB320008EB
:10014000FB320008FB320008FB320008FB320008DB
:10015000FB320008FB320008FB320008FB320008CB
:10016000FB320008FB320008FB320008FB320008BB
:10017000FB320008FB320008FB320008FB320008AB
:10018000FB320008FB320008DFF80CD005F0B2F9B2
:10019000004800479D030008E017002010B5044602
:1001A0002069804742F20E70A1688847B348006812
:1001B000401CB2490860B248006800EBC00101EB86
:1001C0000010AE490968B1EB800F01DB2069804760
:1001D00010BD70B50546AB48006818B1A94909685B
:1001E00008698047A848006838BBA648006838B945
:1001F00002F0ECFAA3490860AFF25F0009684861B9
:100200000020A2490860A24908609C490860A148F2
:100210000068A14908600020A0490860002404E0AB
:1002200000209F4941F82400641C282CF8DB0120A1
:100230009C4908609449086008E0002099490860DA
:1002400001208F49086000208F490860002070BDA0
:1002500070B505468C48006800287CD190488C49D0
:10026000096850F821000A21B0FBF1F201FB1200ED
:100270008D490C5C2146072001F03EFF88488449E7
:10028000096850F821006421B0FBF1F201FB120073
:100290000A21B0FBF1F084490C5C2146062001F0F4
:1002A0002BFF7F487A49096850F821004FF47A7192
:1002B000B0FBF1F201FB12006421B0FBF1F07A49CE
:1002C000085C40F080042146052001F015FF7448C9
:1002D0006F49096850F8210042F21071B0FBF1F249
:1002E00001FB12004FF47A71B0FBF1F06E490C5C27
:1002F0002146042001F000FF69486549096850F86B
:1003000021006A49B0FBF1F201FB120042F21071C8
:10031000B0FBF1F064490C5C2146032001F0ECFED7
:100320005F485B49096850F821006149B0FBF1F270
:1003300001FB12005D49B0FBF1F05B490C5C21460A
:10034000022001F0D9FE0021012001F0D5FE504825
:1003500000680A2100E01FE090FBF1F201FB1200AF
:100360005149085C40F080042146012001F0C4FEA0
:10037000474800680A2190FBF1F04B490C5C21468C
:10038000002001F0B9FE42480068272804DA4048FE
:100390000068401C3E490860002070BD4FF4A0601A
:1003A00002F0B0FF01F03CFF424A0221032001F0BD
:1003B000FCFF414A0221042001F0F7FF02F0F3F9AB
:1003C00002F004FA074602F01DF801F0EAFE0122ED
:1003D00000214FF4E13002F044FB0026002500F03C
:1003E0006FF8A82002F01AFE02F01BFC00F068F87B
:1003F00000F0B9F800BF04E00020294941F82500C9
:100400006D1C282DF8D302F099FD002025490860C5
:100410001D49086030E0761C01F03DFE044604F002
:10042000080048B12548C068A22811DA2348C068EE
:10043000401C2249C8600BE004F0020040B11F4894
:10044000C068002804DD1D48C068401E1B49C86004
:1004500014B11A4802F0E3FC322002F021FE032E10
:100460000AD11048001D006808B9012000E00020F2
:100470000C49091D08600026CDE70000100000208F
:100480001400002008000020000000200C000020C4
:1004900018000020D400002004000020C800002024
:1004A000FC0000209802404248550008A086010048
:1004B00040420F00D301000851020008CC07002081
:1004C0001CB50121084603F0B1FAF020009001208C
:1004D0008DF8040000208DF8060003208DF805003B
:1004E00001208DF807006946114803F001F801204A
:1004F000009000208DF8040002208DF805000120F6
:100500008DF8070069460B4802F0F2FF40210848C9
:1005100003F06AF88021064803F066F810210448C9
:1005200003F064F82021024803F060F81CBD0000CD
:10053000000002400008024070B503460C4603E08C
:1005400014F8015B03F8015B151EA2F10102F7D15B
:1005500070BD30B5034601E003F8011B141EA2F183
:100560000102F9D130BD30B5002412E0534800EB50
:100570000410C068514901EB0411896890FBF1F542
:100580004E4901EB04112A4648680021FFF7E1FFBC
:10059000641C002CEAD030BDF0B5054600220026D0
:1005A00009B1501EF0BD454800EB01108068B5FB55
:1005B000F0F3424800EB01108068B5FBF0F700FB58
:1005C000175000B15B1C002220E03C4800EB0110FA
:1005D0004068805C08B9761C00E000269E4214D179
:1005E000D01A421C002408E0344F07EB01177F6843
:1005F00002EB040C07F80C30641C9C42F4D32F4827
:1006000000EB011080685043CCE7521C2B4800EBF4
:100610000110C068294F07EB0117BF6890FBF7F086
:100620009042D2DC4FF0FF30BCE7F0B503462348E0
:1006300000EB0110C068984218D9204800EB011067
:100640008068B3FBF0F41D4800EB01104068055DC5
:10065000002207E00020194E06EB01167668A71865
:10066000F055521CAA42F5DB0020F0BD0220FCE749
:1006700070B504460D4605B970BD104800EB041076
:1006800000682E1A21463046FFF7CFFF00BFF3E780
:1006900070B505460E460EB9002070BD294630469D
:1006A000FFF77AFF0446601C08B90020F5E703480D
:1006B00000EB051000682044EFE700003855000803
:1006C0000020FE490860091D0860091D0860091D19
:1006D0000860FA4924310860091D0860091D086096
:1006E000F748F649383108600020091D0860704756
:1006F00001460020012900D011B9F24B197000E029
:10070000262070470146ED4A121D106820F0FF00B8
:1007100008431060704770B5044606E0E74834307F
:10072000056805F0450000B100E0F7E700BF0420D0
:1007300004F05EFC20B1042004F065FC032070BDD1
:10074000012004F055FC20B1012004F05CFC0120E4
:10075000F5E7DA4810300068A04201D01020EEE73B
:1007600040F2FF5004F04FFCD448143000680821D8
:100770000840C0B2E3E72DE9FC4107460D460026DC
:1007800000240020009001900820CF49086010202C
:100790004860402088600020C8604FF48060086195
:1007A000084604F092FB1020FFF7B5FF044614B191
:1007B0002046BDE8FC81C54800880004C2490860A5
:1007C00037204860402088600020C8604FF4806077
:1007D0000861084604F079FB3720FFF79CFF0446C8
:1007E0000CB12046E5E74FF0FF30B949086008201A
:1007F0004860302088600220C86000200861012025
:100800004861084604F08DFB0020AF4908603320A2
:100810004860402088600020C8604FF48060086114
:10082000084604F052FB3320FFF775FF04460CB175
:100830002046BEE70DE04FF4001004F0D9FB40B1B4
:100840009E48803000684DF82600761C022E00D3AA
:1008500007E09A483430006840F22A6108400028D6
:10086000E9D000BF082004F0C3FB20B1082004F049
:10087000CAFB04209DE7022004F0BAFB20B102204D
:1008800004F0C1FB022094E7202004F0B1FB20B16A
:10089000202004F0B8FB06208BE74FF4007004F032
:1008A000A7FB28B14FF4007004F0ADFB072080E7F0
:1008B00040F2FF5004F0A7FB00980006009901F4F5
:1008C0007F4140EA0120009901F47F0140EA1120B4
:1008D000009940EA1160686001980006019901F4EE
:1008E0007F4140EA0120019901F47F0140EA112093
:1008F000019940EA1160286020465AE77CB5054618
:10090000002400200090019000260DB1022600E096
:1009100000266A481430006800F0007008B10E200C
:100920007CBD6A49098888B26946FFF724FF0446FE
:100930000CB12046F4E7019800F4802060B36348CE
:1009400000880004604908603720486040208860C3
:100950000020C8604FF480600861084604F0B5FAD2
:100960003720FFF7D8FE04460CB12046D8E756489A
:100970000660062054494860402088600020C86016
:100980004FF480600861084604F09FFA0620FFF7E4
:10099000C2FE04462046C3E72520C1E770B50446E1
:1009A00000254C480078032802D12725284670BD31
:1009B0004848007838B147480078012803D04548B6
:1009C0000078022819D1B4F5805F02D12725284686
:1009D000EDE7E0B2FFF792FF054675B93748001D15
:1009E000006820F4C0503549091D086008460068B9
:1009F000204308600846006808602846D7E710B51D
:100A000004463148046007202F4948604020886030
:100A10000020C8604FF480600861084604F055FA71
:100A20000720FFF778FE10BDF0B501460020002238
:100A3000284B1B7881F85630244B1B88A1F8543082
:100A4000254B1B681A0E93090B70C2F383034B707E
:100A500002F003038B70204B1B68C3F30742CA707C
:100A60001D4B1B88C3F307220A711B4B1A784A716E
:100A70005B681A0E1301CB80174B5B68C3F3074208
:100A8000CB8843EA1213CB8002F00F030B72124B98
:100A90009B88C3F30722D3094B72C2F380138B7276
:100AA000C2F34013CB72C2F300130B7300234B73DA
:100AB000084B1B78C3B1074B1B780FE0002C01409B
:100AC000FF07C00024000020B80100202000002003
:100AD000CC0100201C000020E4010020012B03D0E9
:100AE000FE4B1B78032B4FD193071B0D0B61FC4B67
:100AF0001A790B6943EA82030B61F94B9B681A0E62
:100B00000B6943EA92130B61C2F3C2030B7502F047
:100B100007034B75F24B9B68C3F3074253098B7570
:100B2000C2F38203CB7593075B0F0B76EC4B1B89EB
:100B3000C3F307220B7E43EAD2130B760B695B1CCF
:100B40000024C1E912340B7E9B1C012404FA03F338
:100B5000DC17D1E91256A5FB037C06FB03C305FB9A
:100B60000433C1E912730C7A0123A3400B650024FE
:100B7000D1E912650B6DA6FB037C05FB03C306FBE5
:100B80000433C1E912732EE0D44B1B78022B2AD117
:100B9000D34B1A7993069B0A0B61D14B9B681A0EB3
:100BA0000B6943EA02230B61CD4B9B68C3F30742F9
:100BB0000B6913430B61CA4B1B89C3F307220B69F3
:100BC0005B1C4FF40074A3FB04464FF480630025C4
:100BD000A4FB037C06FB03C304FB0533C1E91273CA
:100BE0004FF400730B65C2F3801301F8193F9306AD
:100BF0005B0E4B70BA4B1A7A4B7843EAD2134B70A8
:100C000002F07F038B70B64BDB681A0ED309CB70F2
:100C1000C2F341130B71C2F382034B7193071B0F95
:100C20008B71AF4BDB68C3F307428B7943EA9213B6
:100C30008B71C2F34013CB7100230B7202F00103DE
:100C40004B72A74B9B89C3F30722D3098B72C2F364
:100C50008013CB72C2F340130B73C2F300134B73B8
:100C6000C2F381038B7302F00303CB739C4B1A7B9B
:100C700053080B7401234B749A4B1B681A0ECA74E9
:100C80001939984B1B68C3F307421402CC85954B66
:100C90001B88C3F30722CB8D1343CB85914B1A7866
:100CA00014060C635B681A0E0B6B43EA02440C6378
:100CB0008C4B5B68C3F307420B6B43EA02240C6363
:100CC000884B9B88C3F307220B6B13430B63854B45
:100CD0001A7934235A54834B9B681A0E35235A547D
:100CE000804B9B68C3F3074214068C637D4B1B89C2
:100CF000C3F307228B6B43EA02448C63794B1A7A65
:100D00008B6B43EA02248C63764BDB681A0E8B6B89
:100D100013438B63734BDB68C3F307423C235B5C79
:100D200043EA12143C235C5413071C0DCC876D4B13
:100D30009B89C3F30722CB8F1343CB87694B1A7B65
:100D4000540840235C54012441235C54F0BD70B529
:100D500000264FF4803505E06348046804F0450040
:100D600000B103E0281EA5F10105F5D100BF15B1C2
:100D700004F0040028B10326042004F044F93046AE
:100D800070BD012004F034F918B10126012004F0EF
:100D90003AF940F2FF5004F036F93046F0E72DE919
:100DA000F04105460E464FF0000805E04E48076842
:100DB00007F0450000B100E0F8E700BF042004F0B0
:100DC00017F928B1042004F01EF90320BDE8F081D2
:100DD000012004F00DF920B1012004F014F90120E4
:100DE000F4E7414824380068A84201D01020EDE71C
:100DF00040F2FF5004F007F93B482038046804F43F
:100E0000604018B9200C30804046DFE704F4005001
:100E100008B11320DAE704F4804008B11020D5E7C8
:100E200004F4004008B10F20D0E74046CEE738B5C3
:100E300000240120009004F042F810B92524204637
:100E400038BD26480078042825D0002027490860AE
:100E500002204860C02088600020C8604FF4806095
:100E60000861084604F031F8FFF771FF04460CB141
:100E70002046E5E71C48203800681A4908601A48EF
:100E80001C380068486018481838006888601648A0
:100E900014380068C8601148007858B10F480078CD
:100EA000012807D00D480078062803D00B480078A9
:100EB000022821D100200D4908600320486040200D
:100EC00088600020C8604FF480600861084603F025
:100ED000FCFF69460320FFF762FF09E01C000020C9
:100EE000E4010020F4010020342C0140B80100206E
:100EF00004460CB12046A3E7FE480078032816D12B
:100F0000BDF800000004FC49086003204860402050
:100F100088600020C8604FF480600861084603F0D4
:100F2000D4FFFFF714FF04460CB1204688E7F148D0
:100F3000007804282AD0BDF80000F0490860BDF808
:100F400000000004EC49086009204860C020886067
:100F50000020C8604FF480600861084603F0B5FFC8
:100F6000FFF7F5FE04460CB1204669E7E448006847
:100F7000E4490860E248001D00684860E048083025
:100F800000688860DE480C300068C860002057E7C1
:100F900010B506E0DA482030046804F0450000B1DE
:100FA00000E0F7E700BF042004F022F820B104209D
:100FB00004F029F8032010BD40F2FF5004F023F89C
:100FC0000020F8E770B500264FF4803506E0CC48E5
:100FD0002030046804F0450000B103E0281EA5F1AC
:100FE0000105F4D100BF15B104F0040028B10326B7
:100FF000042004F008F8304670BD04F0400018B139
:101000000026402003F0FFFF3046F5E770B50025CD
:101010004FF4803404E0802003F0EAFF00B103E0E5
:10102000201EA4F10104F6D100BF0CB9032070BD4D
:1010300040F2FF5003F0E7FF2846F8E72DE9F047BC
:101040000027002400260025A046A1467620AE49B0
:1010500008750020086048608860C860086108461C
:1010600003F009FF032003F026FFA54810380068AD
:1010700040F48070A2491039086000BF12E00020DF
:101080009D49086048608860C8604FF480600861CE
:10109000084603F01AFFFFF7B9FF044604B903E05E
:1010A000781CC7B24A2FEADB00BF14B12046BDE866
:1010B000F0874FF4D57090490860082048604020C0
:1010C00088600020C8604FF480600861084603F023
:1010D000FCFEFFF777FF044624B90120854908701C
:1010E0004FF0804900208449086037204860402044
:1010F00088600020C8604FF480600861084603F0F3
:10110000E4FE3720FFF707FB0446002C4BD134E008
:10111000002079490860372048604020886000201E
:10112000C8604FF480600861084603F0CEFE3720A7
:10113000FFF7F1FA04460CB12046B8E7734849EAD4
:1011400000006D4908602920486040208860002028
:10115000C8604FF480600861084603F0B6FEFFF7F0
:1011600017FF04460CB12046A1E765480668012038
:1011700080EAD67080F001086D1CB8F1000F03D131
:101180004FF6FF708542C3D34FF6FF70854202D3FE
:101190001B2420468BE706F08040061E32D002203A
:1011A000544908702EE01CE059485349086001205A
:1011B0004860402088600020C8604FF4806008616B
:1011C000084603F082FEFFF7E3FE04460CB120461A
:1011D0006DE74B480668012080EAD67080F0010870
:1011E0006D1CB8F1000F03D14FF6FF708542DBD3C1
:1011F0004FF6FF70854202D31B24204657E7032099
:101200003C490870204652E73EB5002400250121E4
:10121000404802F00BFC0121C80202F061FC0121F0
:10122000C80202F0B2FC4FF4F850019002208DF891
:1012300008008DF8090000208DF80A0001208DF8C3
:101240000B0001A9344802F053F90420019001A9D0
:10125000324802F04DF90C2208212F4802F0D3F950
:101260000C2209212C4802F0CEF90C220A212A482E
:1012700002F0C9F90C220B21274802F0C4F90C2214
:101280001146254802F0BFF90C220221234802F042
:10129000BAF900214FF4006002F077FCFFF710FA72
:1012A00031208DF8000001208DF8010000208DF81C
:1012B000020001208DF80300684602F028F8FFF7CD
:1012C000BDFE044614B9FFF7B2FD04461CB914482C
:1012D000FFF7AAFB044634B91149B1F854100804C9
:1012E000FFF78DFB044624B94FF40060FFF756FB6F
:1012F000044617E01C000020B80100202000002058
:10130000142C0140E4010020A00100200000108006
:101310000080FF800C00400000080240000C0240EA
:10132000080200201CB1FE480078032812D1FD48B5
:1013300090F8560020B1FB4890F85600012801D1E2
:10134000042500E004252846FFF7DCF90020FFF71C
:10135000CFF9044620463EBD10B5002003F0ABFD9A
:10136000002010BD70B590B004460E46154600BF73
:10137000ED4803F08CFF0028FAD1EB4803F05EFE45
:101380004FF000600190E94802900394049500201A
:10139000059006904FF480600790800008908000D0
:1013A000099000200A904FF440300B9004200C90DC
:1013B00003200D904FF400000E9080100F9001A9B3
:1013C000D94803F0DDFE2021D74803F029FF012191
:1013D000D54803F00FFF10B070BD0146002002E0B9
:1013E0004910421CD0B20129FAD170472DE9F84FBB
:1013F0008146174698460A9C4FF0000AD3464D4650
:101400004FF0FF36B9F1000F02D12620BDE8F88F6A
:101410000020C64954390860C1480078022805D127
:101420000402780A40EAC8574FEA68280020C049F9
:1014300088604860401E0860012048610020C86044
:101440000861084603F06DFDB8486C38006800F08C
:10145000007008B10E20D9E7002C21DDB4F5006F33
:101460001EDC601E2040D8B92046FFF7B6FF009072
:10147000B04804601020AF494860402088600020D8
:10148000C8604FF480600861084603F01EFD10201C
:10149000FFF741F98246BAF1000F03D05046B5E795
:1014A0002620B3E700980001A149886008464460FF
:1014B0004FF0FF300860012048610220C860002022
:1014C0000861084603F02DFD9A48076011209949EC
:1014D0004860402088600020C8604FF48060086148
:1014E000084603F0F2FC1120FFF715F98246BAF125
:1014F000000F01D0504689E78F48007800285AD164
:1015000001F076FD17E04FF4004003F071FD70B17B
:101510004FF0000B05E08548006845F82B000BF103
:10152000010BBBF1080FF6D32035844E03E00EB952
:1015300004206BE7761E7D484C38006840F22A6133
:1015400008400028DFD0082003F052FD20B1082019
:1015500003F059FD042059E7022003F049FD20B1B2
:10156000022003F050FD022050E7202003F040FD50
:1015700020B1202003F047FD062047E74FF400701C
:1015800003F036FD28B14FF4007003F03CFD072056
:101590003CE703E06548006828602D1D4FF400100B
:1015A00003F026FD0028F5D101F024FD40F2FF50A4
:1015B00003F029FD39E060480078012835D100208A
:1015C0005F4908705F4908705F49087057484438A0
:1015D000006840F22A3108435449443908605348AE
:1015E0005438006840F0080050495439086000221F
:1015F00021464846FFF7B6FE00E0761E4A485838B6
:10160000006800F0006038B94F48007820B94C48B5
:10161000007808B9002EF0D10EB90420F6E648484B
:10162000007810B1464890F800A05046EEE62DE94B
:10163000FF5F17469846DDE90E464FF00009CA469F
:101640004FF0FF3541490098086000203749543970
:10165000086033480078022805D10402780A40EA7D
:10166000C8574FEA68280020314988604860401E0A
:101670000860012048610020C8600861084603F046
:1016800050FC2A486C38006800F0007018B10E2039
:1016900004B0BDE8F09F002C21DDB4F5006F1EDC26
:1016A000601E2040D8B92046FFF797FE83462148A8
:1016B000046010201F494860402088600020C860F6
:1016C0004FF480600861084603F0FFFB1020FFF72D
:1016D00022F88146B9F1000F03D04846D8E726200A
:1016E000D6E7012E7DD906FB04F0B0F1007F01D3CF
:1016F0002620CDE74FEA0B100D49886006FB04F069
:1017000048604FF0FF300860012048610220C86047
:1017100000200861084603F004FC0648076017E053
:101720001C0000200802002058640240802C014068
:10173000CC010020B801002024000020FFFF7F0022
:10174000260000202500002027000020280000207F
:101750001220FA494860402088600020C8604FF499
:1017600080600861084603F0B0FB1220FEF7D3FF4B
:101770008146B9F1000F01D0484689E7F04800786A
:1017800000287DD101F034FC1DE04FF4004003F04F
:101790002FFCA0B14FF0000A07E0EA480068EA49D0
:1017A000096841F82A000AF1010ABAF1080FF4D3D6
:1017B000E54800682030E4490860E44D03E00DB9D5
:1017C000042065E76D1EDF484C38006840F22A317E
:1017D00008400028D9D0082003F00AFC30B10820C6
:1017E00000E0A0E003F00FFC042051E7022003F02A
:1017F000FFFB20B1022003F006FC022048E7202076
:1018000003F0F6FB20B1202003F0FDFB06203FE7AC
:101810004FF4007003F0ECFB28B14FF4007003F0BC
:10182000F2FB072034E709E0C6480068C6490968AA
:101830000860C5480068001DC34908604FF40010E7
:1018400003F0D6FB0028EFD14FF4807003F0D0FBFB
:1018500020B3BF48007838B1BD480078012803D0D4
:10186000BB480078022819D10020B44908600C2038
:101870004860402088600020C8604FF4806000E02D
:1018800013E00861084603F020FB0C20FEF743FF3D
:101890008146B9F1000F01D04846F9E601F0AAFBF4
:1018A00040F2FF5003F0AFFB3DE0A548007801286F
:1018B00039D10020A74908700120A74908700020ED
:1018C000A64908709F484438006840F22A3108430E
:1018D0009C49443908609B485438006840F008002F
:1018E00098495439086006FB04F100220098FFF77C
:1018F00039FD00E06D1E9A48006800F0006008B9EC
:10190000002DF7D10DB90420C2E600BF934800783E
:1019100018B9904800780028F8D08E48007810B1A7
:101920008C4890F800904846B2E61CB5044600206A
:10193000019000908B4800880004804908600D20C9
:101940004860402088600020C8604FF480600861D3
:10195000084603F0BAFA7B484C380068009003E070
:1019600078484C3800680090009800F04500002846
:10197000F6D0012003F03CFB20B1012003F043FB33
:1019800001201CBD042003F033FB20B1042003F030
:101990003AFB0320F5E76B48703800680D2801D04A
:1019A0001020EEE740F2FF5003F02DFB65486C3845
:1019B000006801900198C0F3432020700020E0E708
:1019C0002DE9FF5F86B017469846149D002600203B
:1019D0000590049000248146039082460290019570
:1019E000DDF818B0DDF818B0BBF1000F03D12620E8
:1019F0000AB0BDE8F09F00205249543908605A49A6
:101A000088604860401E0860012048610020C8606E
:101A10000861084603F085FA4A486C38006800F00F
:101A2000007008B10E20E3E749480078022805D18C
:101A30000502780A40EAC8574FEA6828002D1FDDE2
:101A4000B5F5006F1CDC681E2840C8B92846FFF7B2
:101A5000C4FC059039480560102038494860402092
:101A600088600020C8604FF480600861084603F079
:101A70002CFA1020FEF74FFE06461EB13046B7E79F
:101A80002620B5E73748008800042C4908600D205F
:101A90004860402088600020C8604FF48060086182
:101AA000084603F012FA0D20FEF735FE06460EB189
:101AB00030469DE723486C38006803904FF0FF34B0
:101AC0001CE0641E2748008800041C4908600D20A3
:101AD0004860402088600020C8604FF48060086142
:101AE000084603F0F2F90D20FEF715FE06460EB18A
:101AF00030467DE713486C3800680390039800F483
:101B0000807008B9002CDCD10CB9292070E70B4893
:101B10000760182009494860402088600020C8609C
:101B20004FF480600861084603F0CFF91820FEF7F3
:101B3000F2FD0646D6B130465AE70000B801002053
:101B400024000020802C014028000020FFFF7F009F
:101B50001C00002026000020250000202700002077
:101B60000064024020000020CC0100200020F84941
:101B7000087005980001F7498860084645604FF0F5
:101B8000FF300860012048610020C86008610846F5
:101B900003F0C7F94FF0FF34EF48007800287CD1FC
:101BA00001F026FA43E04FF4804003F021FAC8B375
:101BB0000198A0EB0900202821D20198A0EB090090
:101BC00000F0030020B90198A0EB0900800804E0B0
:101BD0000198A0EB09008008401C02904FF0000A19
:101BE00009E0DE49DBF8000008600AF1010A0BF1A8
:101BF000040B09F1040902988245F2D30FE04FF07B
:101C0000000A05E05BF82A00D44908600AF1010ADD
:101C1000BAF1080FF6D30BF1200B09F120096FF090
:101C2000404404E0FFE70CB90420E1E6641ECB4821
:101C30004C38006840F21A6108400028B3D00820F0
:101C400003F0D6F920B1082003F0DDF90420CFE637
:101C5000022003F0CDF920B1022003F0D4F90220D4
:101C6000C6E6102003F0C4F920B1102003F0CBF930
:101C70000520BDE64FF4007003F0BAF930B14FF41F
:101C8000007003F0C0F90720B2E606E001F0B2F9F7
:101C900040F2FF5003F0B7F943E0AF480078012865
:101CA0003FD10020AE490870A9490870AD490870BD
:101CB000AA484438006840F21A310843A749443919
:101CC0000860402229460698FFF74CFBA348543889
:101CD000006840F00800A1495439086000E0641E23
:101CE000A148006800F0006008B9002CF7D11CB9C9
:101CF000FFF78AFA04207BE64FF0FF3400E0641E11
:101D00009848007820B99648007808B9002CF6D198
:101D10000CB904206CE69248007810B19048007825
:101D200066E640F2FF5003F06EF904A8FFF7FDFDF0
:101D3000064603E004A8FFF7F8FD06463EB99DF805
:101D400010000728F6D09DF810000628F2D0304683
:101D50004EE610B54FF4807003F04AF988B37C4822
:101D60000078012814D10020804908600C204860C8
:101D7000402088600020C8604FF4806008610846F9
:101D800003F0A3F80C20FEF7C6FC7549087002E0CA
:101D900000207349087071484838006840F480702A
:101DA0006E4948390860081D00684CF23A31884392
:101DB0006A494439086001206A4908706848007817
:101DC00010BDFFE7022003F013F978B1022003F001
:101DD0001AF96248443800684CF23A3188435F4946
:101DE0004439086002205E490870E9E7082003F0E2
:101DF000FFF878B1082003F006F958484438006825
:101E00004CF23A318843554944390860042054491A
:101E10000870D5E7202003F0EBF878B1202003F01C
:101E2000F2F84E48443800684CF23A3188434B4946
:101E30004439086006204A490870C1E7102003F0C1
:101E4000D7F878B1102003F0DEF844484438006831
:101E50004CF23A31884341494439086005204049F1
:101E60000870ADE74FF4007003F0C2F880B14FF492
:101E7000007003F0C8F83948443800684CF23A3131
:101E8000884336494439086007203549087097E788
:101E9000002095E710B5FFF75CFF10BD70B5044654
:101EA000002514B92625284670BD31480088000455
:101EB0002E4908600D204860402088600020C860DE
:101EC0004FF480600861084602F0FFFF0D20FEF726
:101ED00022FC05460DB12846E6E720486C3800682C
:101EE00020602846E0E708B5002000906846FFF72C
:101EF000D5FF08B1FF2008BD0098C0F34320FAE7E2
:101F00002DE9FE4F06460F46904600200290002520
:101F10003C461848007818B1680240EAD45564027B
:101F200006F0030098B14FF0000A37E04FF400705C
:101F300000904FEA4A2010EB040B45EBE0735A4641
:101F40000D48FFF753FA02904FF000091DE028E01A
:101F500025000020CC01002024000020802C01401E
:101F6000260000202700002000640240B801002065
:101F7000200000201C000020600200201D4810F8F6
:101F8000090006F8090009F10109B9F5007FF5DB40
:101F900006F500760AF1010000F0FF0AC245C5DB34
:101FA00016E0B8F1010F09D14FF4007022462B461C
:101FB00000903046FFF71AFA029009E04FF40070E3
:101FC00022462B46CDE900083046FFF730FB029051
:101FD0000298BDE8FE8F10B5FFF716F910BD70B579
:101FE00005460E461446E2B231462846FFF788FF02
:101FF00070BD000060020020142000E000BF011E40
:10200000A0F10100FADC704770B50446FFF7F4FF59
:1020100000251AE000207B490860FFF7EDFF04F07F
:10202000010020B101207749091D086003E000206C
:102030007449091D0860FFF7DFFF64100120714932
:102040000860FFF7D9FF681CC5B2082DE2DB70BD40
:1020500070B50024FFF7D0FF01206A49091D086010
:10206000002514E06410FFF7C7FF002065490860F1
:10207000FFF7C2FF6448D0F8180208B144F08004AA
:10208000FFF7BAFF01205F490860681CC5B2082D40
:10209000E8DB204670BD38B50024002059490C39D2
:1020A00008604220FFF7B0FFFFF7D2FF8DF8000075
:1020B000FFF7CEFF8DF80100FFF7CAFF8DF8020091
:1020C000FFF7C6FF8DF8030001204F49C1F88802D1
:1020D0009DF8000004439DF8010044EA4000C4B2AA
:1020E0009DF8020044EA8000C4B29DF8030044EA6F
:1020F000C000C4B2204638BD70B504460D4600206D
:1021000040490C3908604420FFF77EFFFFF774FF59
:1021100001203D49C1F8880200203A490C39086085
:10212000C02141EA4401C8B2FFF76EFF2846FFF71D
:102130006BFF01203449C1F8880270BD70B50446B8
:102140000D4635B16100491CC8B20121FFF7D4FF2B
:1021500005E06100491CC8B20021FFF7CDFF70BD4A
:102160001CB50121102001F061FC642000900120C9
:102170008DF8040000208DF8060002208DF805007F
:102180006946224801F0B4F94021204801F02CFAB8
:1021900020211E4801F028FA04211C4801F024FAED
:1021A0001CBD10B5FFF7DCFF002016490C39086094
:1021B0008B20FFF729FFFFF71FFF01201249C1F80D
:1021C000880200200F490C3908604020FFF71CFFEF
:1021D000FFF712FF01200B490C390860002008604E
:1021E000C020FFF711FF002404E00020FFF70CFFE0
:1021F000601CC4B2102CF8DB012002490C390860C5
:1022000010BD000094024242000042420010024011
:102210000146854A02EB8100D0F80002C0B2704747
:102220001CB50121102001F001FC182000900020B5
:102230008DF804008DF8050001208DF8070069462F
:102240007A4801F055F91CBD2DE9F04107462FB140
:10225000386980474FF4FA70B968884700249FE0D6
:10226000734800EB44100069002872D0704A02EBFA
:102270004412107B6E4A02EB4412116988470546EE
:102280006B4800EB44104668694800EB4410017845
:10229000A94215D0A6B94EB90B20654901EB4411EE
:1022A0004860634800EB4410057008E00020604976
:1022B00001EB441148605E4800EB441005706EE08D
:1022C00055BB4EBB5A4800EB44108068002808DD1F
:1022D000574800EB44108068401C554901EB4411FD
:1022E0008860534800EB44108068B0F5C87F12DB6B
:1022F00000204F4901EB441188604D4800EB441029
:10230000C06940B14A4A02EB4412107B484A02EBD2
:102310004412D169884742E0454800EB44100078F8
:10232000A8422BD1012E29D1A5B9414800EB441078
:10233000406940B13E4A02EB4412107B3C4A02EB3A
:102340004412516988470A20394901EB44118860D9
:102350000EE023E0364800EB4410806940B1344A77
:1023600002EB4412107B324A02EB44129169884717
:1023700000202F4901EB4411486010E02C4800EB8D
:1023800044100078A84209D146B1294800EB441016
:102390004068401E264901EB4411486000BF641CA0
:1023A000022CFFF45DAFBDE8F08110B503460C468A
:1023B000002122E01E4800EB4110007B98421BD117
:1023C000012C04D0022C08D0032C12D10BE01848A9
:1023D00000EB41104261002010BD154800EB411098
:1023E00082610020F8E7124800EB4110C261002032
:1023F000F2E74FF0FF30EFE7491C0229DAD34FF044
:10240000FF30E9E710B5044614B94FF0FF3010BDB6
:1024100060688047AFF2CF1060614FF4FA70A16836
:1024200088470020F3E7000000004242001002400D
:102430002C0000201FB54FF0804001F0BFFE0121AD
:10244000084601F03CFB1C208DF8000002208DF8AE
:10245000010001208DF802008DF80300684600F0AD
:1024600056FF42F20F7002905320ADF80400002096
:10247000ADF80C00ADF8060001A94FF0804001F066
:102480004AFF0121880701F0B1FF0121880702F00E
:102490000BFC00214FF0804001F086FF0122114625
:1024A000900702F0D9FB4FF08040008840F0080010
:1024B0004FF0804108800846008820F00100088025
:1024C0001FBD3EB504464FF0804001F077FE601E10
:1024D000019040F24730ADF800000020ADF8080050
:1024E000ADF8020069464FF0804001F014FF4FF054
:1024F0008040008840F080004FF08041088000203C
:1025000008820846808940F00100888100204862E6
:102510000846008840F0090008803EBD00204FF0CA
:10252000804148620846008840F0010008807047FA
:102530004FF08040008820F001004FF0804108807B
:10254000704710B500204FF080410882A9484069CB
:1025500010B1A8484169884710BD1FB5A64801F0D1
:102560002DFE0121022001F0AAFA1D208DF80000A5
:1025700002208DF801008DF8020001208DF8030083
:10258000684600F0C4FE44F61F6002905320ADF888
:1025900004000020ADF80C00ADF8060001A9964833
:1025A00001F0B9FE0121944801F020FF0121924879
:1025B00002F066FB0121904802F076FB00218E4874
:1025C00001F0F2FE012211468B4802F045FB8A48D9
:1025D000008840F00800884908800846008820F0FC
:1025E000010008801FBD3EB50446834801F0E6FDAA
:1025F000601E01905320ADF800000020ADF80800E7
:10260000ADF8020069467C4801F085FE7A480088F2
:1026100040F0800078490880002077491031088018
:10262000081F008840F00100091F0880002072493F
:10263000243108607048008840F009006E49088025
:102640003EBD00206C49243108606B48008840F092
:1026500001006949088070476748008820F0010040
:1026600065490880704710B50121634802F01CFBE2
:102670006248406910B161484169884710BD1FB583
:102680005F4801F09BFD0121042001F018FA1E2093
:102690008DF8000002208DF8010003208DF8020063
:1026A00001208DF80300684600F031FE44F61F60FB
:1026B00002905320ADF804000020ADF80C00ADF8F6
:1026C000060001A94E4801F026FE01214C4801F008
:1026D0008DFE01214A4802F0D3FA0121484802F058
:1026E000E3FA0021464801F05FFE0122114644480A
:1026F00002F0B2FA4248008840F0080040490880E1
:102700000846008820F0010008801FBD3EB5044641
:102710003B4801F053FD601E019040F24730ADF898
:1027200000000020ADF80800ADF80200694634480A
:1027300001F0F1FD3248008840F080003049088007
:1027400000202F4910310880081F008840F0010048
:10275000091F088000202A49243108602848008881
:1027600040F00900264908803EBD0020244924315C
:1027700008602348008840F0010021490880704724
:102780001F48008820F001001D490880704710B5DF
:1027900001211B4802F088FA1A48406910B1194813
:1027A0004169884710BD70B500250CE0164850F807
:1027B0002540606820B1606880470020206001E00B
:1027C000FF2020606D1C032DF0D370BD002209E0B6
:1027D0000D4850F82210086818B901200860084612
:1027E0007047521C032AF3D30020F9E7002101604F
:1027F000704700006C0000200004004084000020AE
:10280000000800409C000020B400002070B588B093
:1028100004460D4616460121084601F007F901213C
:10282000102001F05DF907220A21EA4800F0EBFED2
:1028300007220921E74800F0E6FE4FF4C060069049
:1028400002208DF81C0003208DF81D0000208DF85B
:102850001E0001208DF81F0006A9DE4800F048FE8A
:1028600002940020ADF80C00ADF80E00ADF8100099
:10287000ADF814000C20ADF8120002A9D64801F002
:10288000DAFA0121D44801F05EFB4021D24801F080
:1028900042FC002240F22661CF4801F00AFC0122EE
:1028A00040F22551CC4801F004FC25208DF80400AD
:1028B00001208DF8050003208DF8060001208DF819
:1028C000070001A800F023FD08B070BD0021C34837
:1028D000B0F80E02C14AB2F81022904201D1481E4F
:1028E0007047BE48B0F8102200F58770815CBB4885
:1028F000B0F81002401CB94AA2F810021046B0F815
:102900001002FF2802DD0020A2F810020846E7E7C7
:1029100010B5044600E000BF4021AF4801F0EEFBD7
:102920000028F8D02146AC4801F038FB10BD70B546
:10293000054600240CE000E000BF4021A64801F05D
:10294000DDFB0028F8D0295DA34801F027FB641CBB
:10295000285D0028EFD1204670BD70B506460025E1
:102960009E48D0F81C0208B9002070BD09E09B49C0
:10297000D1F81C0280470446002C00DA02E07455AE
:102980006D1CF4E700BF2846EFE770B506460C461D
:102990000025002C15DD9148D0F8200288B100BF39
:1029A0000BE0715D8C4801F0F9FA00BF40218A48C4
:1029B00001F0A4FB0028F9D06D1C201EA4F1010435
:1029C000EFDC284670BD70B506460D460024002D8C
:1029D00036DD00BF1FE0315D8048B0F80A210A30C3
:1029E00081540A38B0F80A01401C7C49A1F80A0158
:1029F0000846B0F80A01FF2802DD0020A1F80A010C
:102A00007648B0F80A017549B1F80C11884201D135
:102A1000002070BD641CAC42DDDB7048B0F80C21B6
:102A20000A30815C6C4801F0B9FA012240F226615B
:102A3000694801F03EFB40F22661674801F0AFFBB8
:102A40002046E6E770B505460C46322C04DA2146EE
:102A50002846FFF79AFF70BD21462846FFF7B3FFCF
:102A6000F9E72DE9F04104460D4616460027DFF848
:102A70006C8100BF03E0002008F8010B7F1CB7F554
:102A80000B7FF8D35548446001460D724E72AFF289
:102A9000C310C1F81C02AFF28710C1F82002AFF2D8
:102AA0004510C1F82402AFF26300C1F828020B46BA
:102AB0005A7A197A5868FFF7A9FEBDE8F08170B517
:102AC00004460D461646454B5A7A197A5868FFF760
:102AD0009DFE70BD10B540F225513F4801F024FB2A
:102AE00000283FD040F225513B4801F058FB3A48BE
:102AF00001F058FAC4B23948B0F80E1200F58770E8
:102B000044543648B0F80E02401C3449A1F80E0275
:102B10000846B0F80E02FF2802DD0020A1F80E02E0
:102B20002E48B0F80E022D49B1F8101288420ED18D
:102B30002A48B0F81002401C2849A1F810020846A3
:102B4000B0F81002FF2802DD0020A1F8100223488F
:102B5000D0F8140228B121480021D0F814222046D0
:102B6000904700BF40F226611B4801F0DDFA18B320
:102B700040F22661184801F012FB1848B0F80C0129
:102B8000401C1649A1F80C010846B0F80C01FF28BA
:102B900002DD0020A1F80C011048B0F80A010F492D
:102BA000B1F80C11884208D00C48B0F80C210A305A
:102BB000815C094801F0F2F90AE0002240F2266146
:102BC000054801F076FA40F22661034801F0E7FA81
:102BD00010BD000000000240001001406004002011
:102BE0000420424908607047082040490860404876
:102BF000006890B13F4800683F490968401A3F4962
:102C00003F4A126841F822003D480068272804DA4C
:102C10003B480068401C3A49086001203949086077
:102C2000704700B585B00121084600F0FFFE0C207A
:102C3000009000208DF8040003208DF8050002208C
:102C40008DF807006946304800F052FC02200090E1
:102C500001208DF804008DF8060003208DF8050092
:102C600002208DF807006946274800F041FC022148
:102C7000254800F0BBFC0121880300F031FF022150
:102C8000002001F038F80321002001F034F80C2076
:102C9000029000208DF80C0008208DF80D00012016
:102CA0008DF80E0002A802F0ABFB08208DF8100092
:102CB00000208DF811008DF8120001208DF813000E
:102CC00004A800F024FB00201049086009208DF8BA
:102CD000100000208DF8110001208DF812008DF8F1
:102CE000130004A800F013FB05B000BD143C014024
:102CF00000000020D400002004000020FC00002080
:102D0000C80000208402404200000240C4000020AD
:102D10000022AE4B1A60AE4BC3F8A822002117E088
:102D200000F0800222B10122A84B10331A6003E0A8
:102D30000022A64B10331A600022A44B18331A60ED
:102D40004206100E0122A24BC3F8B8224A1CD1B28F
:102D50000829E5DB01229D4B1A60704700229B4B3E
:102D60001A6001229A4BC3F8A822002117E000F054
:102D7000800222B10122954B10331A6003E0002239
:102D8000924B10331A600022904B18331A6042069F
:102D9000100E01228E4BC3F8B8224A1CD1B208296A
:102DA000E5DB0122894B1A60704710B50C20FFF754
:102DB000AFFF8020FFF7ACFF002403E00020FFF707
:102DC000CDFF641CB4F5FC7FF8D310BD70B504468C
:102DD000A4F12000C4B2002509E004EB44017D4ABF
:102DE00002EB4101485DFFF7B9FF681CC5B2062D33
:102DF000F3DB70BD70B505460E46144646F0400044
:102E0000FFF786FF45F08000FFF782FF03E02078A0
:102E1000FFF7DCFF641C20780028F8D170BD2DE995
:102E2000F04104460027002618E0F9B241F04000C6
:102E3000FFF76EFF8020FFF76BFF2168E06806FB5D
:102E40000108002506E005EB0802A168885CFFF791
:102E500085FF6D1C502DF6D37F1C761C6068C11752
:102E600000EB5171B6EBE10FDFD3BDE8F0812DE946
:102E7000F05F82460E4693461F460A9CE11704EB1C
:102E80005171C910A4EBC10131B92046E11704EB1F
:102E90005171C1F3C70907E02046E11704EB5171F6
:102EA000C910491C01F0FF09002517E046F0400059
:102EB000FFF72EFF4AF08000FFF72AFF4FF00008CF
:102EC00007E005FB07811BF80100FFF747FF08F14A
:102ED0000108B845F5D3701CC6B26D1C4D45E5D34D
:102EE000BDE8F09F1CB50121182000F09FFD4FF4B4
:102EF000AA40009001208DF8040000208DF8060003
:102F000003208DF805006946334800F0F1FA0220ED
:102F100000906946314800F0EBFA4FF4A060009051
:102F200000208DF8040003208DF8050001208DF8A5
:102F300007006946294800F0DBFA1CBD10B5FFF711
:102F4000D1FF002026490860002401E000BF641C76
:102F5000C82CFBD301202249086000201C49C1F87D
:102F6000A002002401E000BF641CC82CFBD3012098
:102F700016490860002401E000BF641CC82CFBD384
:102F80002120FFF7C5FEC820FFF7C2FE0620FFF78D
:102F9000BFFE1320FFF7BCFE2020FFF7B9FEFFF7AE
:102FA00004FF0C20FFF7B4FE002008490860FFF77B
:102FB000FCFE28200B4948600B488860F22008601E
:102FC0000020C8600846FFF72AFF10BDA002424259
:102FD00000004242E855000800100240000C024088
:102FE00084824142CC0700201058000830BF70474F
:102FF00072B6704762B67047704700BFFEE700BF09
:10300000FEE700BFFEE700BFFEE77047704770476E
:103010002C480068401C2B490860704770B5044676
:1030200000202849086004EB8400C0F39C01481E7E
:10303000B0F1807F00D31BE0481E4FF0E0225061CA
:1030400050170F22002807DA13071E0E1E4B00F040
:103050000F052D1F5E5503E013071D0E1B4B1D545E
:1030600000BF00204FF0E02290610720106100BFF8
:103070006FF0040000F098F970BD10B5114B1A689C
:1030800000B910BD00F109030A24B3FBF4F100E01C
:1030900000BF0C4B1B689B1A8B42F9D900BFF0E7AD
:1030A00000B97047074A116800E000BF054A12687E
:1030B000521A00EBC00303EB0013B2EB830FF4D9F9
:1030C00000BFEEE7D400002018ED00E000E400E0CF
:1030D0000CB50020019000907648006840F48030E4
:1030E0007449086000BF7348006800F40030009025
:1030F0000198401C0190009818B90198B0F5A04FB4
:10310000F1D16C48006800F4003010B1012000904B
:1031100001E0002000900098012846D16548403029
:10312000006840F0805063494031086062480068A0
:1031300040F44040604908605E48083000685D49DE
:10314000083108600846006840F4004008600846FE
:10315000006840F4A05008605848091F0860081F24
:10316000006840F08070091F086000BF5148006887
:1031700000F000700028F9D040F205705049086056
:103180004C480830006820F003004A4908310860C4
:103190000846006840F00200086000BF454808305B
:1031A000006800F00C000828F8D10CBD10B54548A7
:1031B000006840F47000434908603E48006840F0F1
:1031C00001003C49086000203A490831086039484C
:1031D00000683D490840374908603C48091D0860BF
:1031E000081F006820F48020091F08600020314972
:1031F0000C310860FFF76CFF4FF0006031498039F7
:10320000086010BD70B500200022022300240221B6
:10321000284D08352D6805F00C0020B1042806D093
:10322000082834D107E02A4D2A4E356033E02A4D74
:10323000284E35602FE01F4D2D1D2D68C5F380549D
:103240001C4D2D1D2D6805F03F0154B1224DB5FBDD
:10325000F1F5184E361D3668C6F3881605FB06F2E2
:1032600009E01B4DB5FBF1F5124E361D3668C6F36D
:10327000881605FB06F20F4D2D1D2D68C5F301457F
:103280006D1C6B00B2FBF3F5124E356003E0104D80
:10329000104E356000BF00BF064D08352D68C5F3E0
:1032A00003150E4E705D0B4D2D68C540094E3560FF
:1032B00070BD000000380240007000400854400714
:1032C000003C024088ED00E0FFFFF6FE10300024D5
:1032D0000024F400D800002000127A00DC00002056
:1032E0000648804706480047FEE7FEE7FEE7FEE7A0
:1032F000FEE7FEE7FEE7FEE7FEE7FEE7AD3100088A
:103300008901000832490143324A1160704770B5A3
:10331000002100230F22C4781CB32E4C246804F42F
:10332000E064C4F5E064C4F30721C1F10404E3B22E
:103330000A4144789C40E1B28478144021430C0750
:10334000210E254C05786155047804F01F050124F1
:10335000AC4005786D11AD0005F1E025C5F80041E0
:1033600009E0047804F01F050124AC401B4D0678E9
:10337000761145F8264070BD194A0A400243154BA4
:103380001B1F1A60704739B1124A121D126802439E
:10339000104B1B1D1A6006E00E4A121D1268824374
:1033A0000C4B1B1D1A607047042808D14FF0E02118
:1033B000096941F004014FF0E022116107E04FF08C
:1033C000E021096921F004014FF0E022116170470A
:1033D0000000FA050CED00E000E400E080E100E010
:1033E00080FFFF1F10B504469848844208D1012190
:1033F000084600F086FB0021012000F082FB76E009
:103400009348844208D10121022000F07AFB002178
:10341000022000F076FB6AE08E48844208D1012148
:10342000042000F06EFB0021042000F06AFB5EE047
:103430008948844208D10121082000F062FB002164
:10344000082000F05EFB52E08448844208D101214C
:10345000102000F056FB0021102000F052FB46E047
:103460007F48844208D10121202000F04AFB00213E
:10347000202000F046FB3AE07A48844208D101213E
:10348000402000F03EFB0021402000F03AFB2EE0FF
:103490007548844208D10121802000F032FB0021D0
:1034A000802000F02EFB22E07048844208D10121E8
:1034B000801500F026FB0021A01500F022FB16E08D
:1034C0006B48844208D10121401500F01AFB00210D
:1034D000601500F016FB0AE06648844207D101211E
:1034E000001500F00EFB0021201500F00AFB10BDB6
:1034F000F0B50A4600210023002400BF3DE001256D
:1035000005FA01F3156805EA03049C4234D1056805
:103510004F000326BE40B543056015794E00B54007
:103520000668354305601579012D02D01579022D05
:1035300016D185684F000326BE40B5438560557996
:103540004E00B540866835438560456801268E404B
:10355000B5434560456896798E40B6B235434560BF
:10356000C5684F000326BE40B543C560D5794E00FF
:10357000B540C6683543C560491C1029BFD3F0BDAE
:103580004FF6FF7101600021017141718171C171BC
:10359000704708B54FF480320092009A0A430092B7
:1035A000009AC261C161009AC261C2690092C26997
:1035B000009208BD0246002013690B400BB10120A8
:1035C00000E0002070470146086980B2704702465B
:1035D000002053690B400BB1012000E00020704730
:1035E0000146486980B27047018370474183704744
:1035F0000AB1018300E0418370474161704742692D
:103600004A4042617047F0B5002300244D07ED0E9B
:1036100002FA05F3CE1000F1200555F826504E07AA
:10362000F70E0F26BE40B543CF1000F1200646F836
:103630002750CE1000F1200555F8265045EA030426
:10364000CE1000F1200545F82640F0BD00000240F4
:103650000004024000080240000C0240001002403A
:103660000014024000180240001C024000200240EA
:103670000024024000280240F948006840F00100A0
:10368000F74908600020F64908310860F4480068EE
:10369000F4490840F2490860F348091D0860F348FE
:1036A000EF4984310860F0481038091D0860EC4883
:1036B000006820F48020EA4908600020E8490C31C5
:1036C0000860E7498C31086070470021E44A921C89
:1036D000117011460870704710B501460022002392
:1036E00000204A11012A02D1DD4C236808E0022A99
:1036F00003D1DB4C7034236802E0D94C7434236866
:1037000001F01F02012494401C400CB1012000E094
:10371000002010BD38B5002000900024002500BF17
:103720003120FFF7D9FF05460098401C0090009813
:10373000B0F5A04F01D0002DF2D03120FFF7CCFF23
:1037400008B1012400E00024204638BD01460020D5
:10375000C34A106820F0F80040EAC10010607047CA
:10376000C349086070470021BD4A70321170117062
:10377000012802D004280AD104E00121B84A70329D
:10378000117005E00521B64A7032117000E000BFEB
:1037900000BF7047B7490860704770B5049C41EAA4
:1037A00082150126C6EB530645EA0645054345EA60
:1037B0000465AB4E361D356070BDAD490866704777
:1037C000820142EA0172A64B84331A607047A8490D
:1037D0008866704710B5830143EA016343EA0273C8
:1037E0009F4C8834236010BDA14908677047A049E9
:1037F000C864704702460020994B0833186820F0CF
:10380000EC6042EA01031843954B08331860704797
:1038100002460020924B0833186820F0784042EAB4
:10382000010318438E4B083318607047014600208F
:103830008B4A0832106820F003000843106070477C
:1038400087480830006800F00C00704701460020EF
:10385000834A0832106820F0F00008431060704777
:10386000014600207E4A0832106820F4E0500843E8
:103870001060704701460020794A0832106820F431
:10388000604040EAC10010607047F0B5002100229E
:103890000024022500260223714F08373F6807F0F5
:1038A0000C0121B1042905D0082937D105E0724F58
:1038B000076036E0714F076033E0694F3F1D3F6896
:1038C000C7F38056664F3F1D3F6807F03F036EB158
:1038D0006A4FB7FBF3F7DFF888C10CF1040CDCF892
:1038E00000C0CCF3881C07FB0CF40CE0624FB7FB64
:1038F000F3F7DFF86CC10CF1040CDCF800C0CCF37A
:10390000881C07FB0CF4564F3F1D3F68C7F3014767
:103910007F1C7D00B4FBF5F7076002E0564F07609F
:1039200000BF00BF4E4F08373F6807F0F00109099C
:10393000534F7A5C0768D7404760494F08373F6864
:1039400007F4E051890A4E4F7A5C4768D740876098
:10395000434F08373F6807F46041490B484F7A5C92
:103960004768D740C760F0BD002100F44072B2F54F
:10397000407F0AD13A4A0832116821F4F811414ACD
:1039800002401143364A08321160354A70321268DB
:10399000C0F30B031A43324B70331A60704735493A
:1039A00044390860704733494039086070473649E8
:1039B0000860704701460020294A8C32106820F0C8
:1039C0001F004A1E1043264A8C3210607047014681
:1039D0000020234A8C32106820F4F8504A1E40EA36
:1039E00002201F4A8C3210607047014600201C4A9A
:1039F0008C32106820F44010084310607047014674
:103A00000020174A8C32106820F4400008431060F0
:103A1000704701460020124A8C32106820F4403072
:103A200008431060704719490860704739B10C4A63
:103A30003032126802430A4B30331A6006E0084AFB
:103A4000303212688243064B30331A607047F9B146
:103A5000034A343212680243014B34331A601CE0CB
:103A600000380240FFFFF6EA10300024003000204A
:103A700000004742800E47420024F40000127A0002
:103A8000EC000020FFFCFF0F5C014742E0114742C1
:103A90008F4A126882438E4B1A60704739B18C4A44
:103AA000121D126802438A4B1B1D1A6006E0884AE9
:103AB000121D12688243864B1B1D1A60704739B174
:103AC000834A0C3212680243814B0C331A6006E0C1
:103AD0007F4A0C32126882437D4B0C331A60704768
:103AE00039B17B4A103212680243794B10331A60A5
:103AF00006E0774A103212688243754B10331A6021
:103B0000704739B1724A243A12680243704B243B21
:103B10001A6006E06E4A243A126882436C4B243BDA
:103B20001A60704739B16A4A203A12680243684BFA
:103B3000203B1A6006E0664A203A12688243644BD2
:103B4000203B1A60704739B1614A1C3A126802433F
:103B50005F4B1C3B1A6006E05D4A1C3A12688243C8
:103B60005B4B1C3B1A60704739B1594A143A1268D2
:103B70000243574B143B1A6006E0554A143A126848
:103B80008243534B143B1A60704739B1504A103A84
:103B9000126802434E4B103B1A6006E04C4A103A42
:103BA000126882434A4B103B1A60704739B1484A49
:103BB0001C3212680243464B1C331A6006E0444A2A
:103BC0001C3212688243424B1C331A60704739B171
:103BD0003F4A2032126802433D4B20331A6006E010
:103BE0003B4A203212688243394B20331A607047B7
:103BF00039B1374A243212680243354B24331A60F4
:103C000006E0334A243212688243314B24331A606F
:103C1000704739B12E4A2C32126802432C4B2C3398
:103C20001A6006E02A4A2C3212688243284B2C3351
:103C30001A60704739B1264A303212680243244B69
:103C400030331A6006E0224A303212688243204B39
:103C500030331A607047012808D11D493C3109688A
:103C600041F008011A4A3C32116007E018493C3122
:103C7000096821F00801164A3C321160704739B1D9
:103C8000134A273A12780243114B273B1A7006E079
:103C90000F4A273A127882430D4B273B1A70704720
:103CA0000B484030006840F080700949403108609E
:103CB000704701460020064A283A12680A400AB1B5
:103CC000012000E000207047014926390870704744
:103CD0003438024010B501218803FFF756FF002158
:103CE0004FF48040FFF751FF10BD1C49086070473A
:103CF0001B490862704730B500228B071C0F0F2349
:103D000003FA04F2154B08338C1053F82430934314
:103D1000124C08348D1044F8253023468C1053F88B
:103D200024308C07240F00FA04F423430B4C08348E
:103D30008D1044F8253030BD0949DC3108607047EA
:103D4000084908607047002004492031096801F4DF
:103D5000807109B1012000E0002070470038014067
:103D6000000027420004274210B50446FA48844266
:103D700008D101211020FFF708FF00211020FFF7D4
:103D800004FF57E0F548844209D101214804FFF7B8
:103D9000EBFE00214FF40030FFF7E6FE4AE0F0486A
:103DA000844209D101218804FFF7DEFE00214FF48F
:103DB0008020FFF7D9FE3DE0EA48844209D1012185
:103DC000C804FFF7D1FE00214FF40020FFF7CCFE1E
:103DD00030E0E548844209D101210805FFF7C4FE1F
:103DE00000214FF48010FFF7BFFE23E0DF4884423C
:103DF00008D101212020FFF7C8FE00212020FFF775
:103E0000C4FE17E0DA48844209D101218807FFF790
:103E1000ABFE00214FF08040FFF7A6FE0AE0D54838
:103E2000844207D101214005FFF79EFE0021600575
:103E3000FFF79AFE10BD2DE9FF4705460E46002408
:103E4000A14600BFA046B08900B100BF2C8A24F46F
:103E50004054F08804432C82AC8941F20C608443C6
:103E6000B08831890843718908430443AC81AC8A26
:103E700024F44074B0890443AC826846FFF705FD22
:103E8000B548854202D0B948854202D1DDF80C9090
:103E900001E0DDF80890A88900F4004040B109EB8A
:103EA000C90000EB091031684900B0FBF1F707E0E9
:103EB00009EBC90000EB091031688900B0FBF1F78C
:103EC0006420B7FBF0F004012009642101FB1078A5
:103ED000A88900F4004040B1322000EBC800B0FBDC
:103EE000F1F000F00700044308E0322000EB081076
:103EF0006421B0FBF1F000F00F0004432C81BDE819
:103F0000FF874FF41651016000218180C18001813B
:103F10000C21418100218181704710B502460020AB
:103F2000108A20F470600B884C8823438C882343CC
:103F3000CC8823431843108210BD002101804180AA
:103F40008180C180704721B1828942F40052828110
:103F500004E082894DF6FF731A4082817047028B1C
:103F600002F47F420283028B0A430283704721B12D
:103F7000828942F40042828103E08289C2F30E0208
:103F80008281704721B1828A42F40062828204E019
:103F9000828A4FF2FF731A4082827047C1F308028F
:103FA0008280704701468888C0F308007047028A03
:103FB0004FF6F0731A400282028A0A430282704767
:103FC00021B1828942F00202828104E082894FF6A7
:103FD000FD731A408281704782894FF2FF731A4045
:103FE000828182890A4382817047028A4FF6DF7399
:103FF0001A400282028A0A430282704721B1028A71
:1040000042F48042028204E0028A4BF6FF731A40B7
:1040100002827047818941F001018181704721B19D
:10402000828A42F00802828204E0828A4FF6F773A5
:104030001A4082827047028BD2B20283028B42EA1C
:1040400001220283704721B1828A42F020028282DB
:1040500004E0828A4FF6DF731A408282704721B1F2
:10406000828A42F01002828204E0828A4FF6EF7365
:104070001A4082827047828A4FF6FB731A4082820E
:10408000828A0A438282704721B1828A42F0020208
:10409000828204E0828A4FF6FD731A408282704762
:1040A0001AB1838A0B43838202E0838A8B43838223
:1040B0007047F0B50346002400260025002040F696
:1040C0006A17B94200D100BF1846C1F3421401F08B
:1040D0001F06012707FA06F5012C01D10C3004E078
:1040E000022C01D1103000E014301AB107682F43C0
:1040F000076002E00768AF430760F0BD024600209A
:10410000B1F5007F00D100BF13880B400BB1012037
:1041100000E00020704701F40072B2F5007F00D18A
:1041200000BFCA430280704770B5024600240023D6
:104130000025002040F66A16B14200D100BFC1F34D
:10414000421501F01F03012606FA03F3012D13D1D6
:104150009689334017E00000001001400044004001
:1041600000480040004C0040005000400014014056
:1041700000780040007C0040022D02D1168A3340B6
:1041800001E0968A33400C12012606FA04F41688E0
:10419000344013B10CB1012000E0002070BD10B517
:1041A0000022002340F66A14A14200D100BF0A1287
:1041B00001249440A3B2DC43048010BD10B5044632
:1041C000FE48844208D101210846FFF7DEFC0021A9
:1041D0000120FFF7DAFC9DE0B4F1804F08D1012106
:1041E0000846FFF7C1FC00210120FFF7BDFC91E06C
:1041F000F348844208D101210220FFF7B5FC0021D9
:104200000220FFF7B1FC85E0EE48844208D101218D
:104210000420FFF7A9FC00210420FFF7A5FC79E0AA
:10422000E948844208D101210820FFF79DFC0021C4
:104230000820FFF799FC6DE0E448844208D1012191
:104240001020FFF791FC00211020FFF78DFC61E0AA
:10425000DF48844208D101212020FFF785FC00219E
:104260002020FFF781FC55E0DA48844208D1012183
:104270000220FFF78AFC00210220FFF786FC49E0BC
:10428000D548844209D101210804FFF77EFC0021B2
:104290004FF48030FFF779FC3CE0D048844209D1EC
:1042A00001214804FFF771FC00214FF40030FFF7B3
:1042B0006CFC2FE0CA48844209D101218804FFF731
:1042C00064FC00214FF48020FFF75FFC22E0C5482A
:1042D000844208D101214020FFF746FC0021402004
:1042E000FFF742FC16E0C048844208D1012180203B
:1042F000FFF73AFC00218020FFF736FC0AE0BB48BC
:10430000844207D101218015FFF72EFC0021A01562
:10431000FFF72AFC10BD00220288A84B98420ED05D
:10432000AC4B98420BD0B0F1804F08D0A44B9842D0
:1043300005D0A44B984202D0A34B984204D14FF62B
:104340008F731A404B881A43A04B984207D0A04B5A
:10435000984204D04FF6FF431A400B891A4302805B
:104360004B68C3620B880385944B984202D0994BEB
:10437000984201D18B7A03860123838270474FF0E4
:10438000FF314160002101800181418081727047CD
:104390000185828270470A46002101884FF68F739B
:1043A000194011430180704741627047C1627047F4
:1043B0000146486A70470146088D704721B102885E
:1043C00042F00202028004E002884FF6FD731A40B8
:1043D0000280704721B1028842F00402028004E0AA
:1043E00002884FF6FB731A400280704721B10288A1
:1043F00042F08002028004E002884FF67F731A4088
:104400000280704702884FF6F7731A4002800288D4
:104410000A430280704702884FF6FF431A40028029
:1044200002880A430280704721B1028842F00102EB
:10443000028004E002884FF6FE731A400280704743
:1044400070B5002400220023058C4FF6FE7635401F
:104450000584028C8388048B4FF68F752C40B51E23
:104460002C400D882C43751E2A408D892A434D8887
:104470002A43524DA84202D0564DA84213D14FF6BE
:10448000F7752A40CD892A434FF6FB752A408D885F
:104490002A434FF6FF652B404FF6FF552B400D8A00
:1044A0002B434D8A2B43838004838D6845630284AC
:1044B00070BD70B5002400220023058C4FF6EF7606
:1044C00035400584028C8388048B48F6FF752C40A8
:1044D0004FF6FF452C400D884FF6FF7606EA05257E
:1044E0002C434FF6DF752A408D8906EA05152A43CD
:1044F0004D8806EA05152A43304DA84202D0354DB5
:10450000A8421DD14FF67F752A40CD894FF6FF7620
:1045100006EA05152A434FF6BF752A408D8806EA3C
:1045200005152A434FF6FF352B404FF2FF752B4000
:104530000D8A06EA85052B434D8A06EA85052B433D
:10454000838004838D688563028470BD70B5002408
:1045500000220023058C4FF6FF6635400584028C4F
:104560008388848B4FF68F752C404FF6FC752C405A
:104570000D882C434FF6FF552A408D894FF6FF7664
:1045800006EA05252A434D8806EA05252A430B4DF0
:10459000A84202D00F4DA84238D14FF2FF752A40F1
:1045A000CD894FF6FF7606EA05252A434FF6FF35FB
:1045B0002A408D8806EA05252A4319E000000140BB
:1045C0000004004000080040000C004000100040C3
:1045D000001400400004014000400140004401403C
:1045E0000048014000180040001C0040002000402E
:1045F0004EF6FF752B404DF6FF752B400D8A06EAEF
:1046000005152B434D8A06EA05152B4383808483C9
:104610008D68C563028470BD70B50022002300243C
:10462000058C4EF6FF7635400584038C8488828B9A
:1046300048F6FF752A404FF6FF452A400D884FF691
:10464000FF7606EA05252A434DF6FF752B408D8936
:1046500006EA05352B434D8806EA05352B43FE4D0A
:10466000A84202D0FD4DA84208D14BF6FF752C4060
:104670000D8A4FF6FF7606EA85152C4384808283E7
:104680008D680564038470BD0021018041808180B4
:1046900081608181C18101824182704770B503468A
:1046A000002000241846183001258D40ACB21D8C26
:1046B000A5431D8409B108290AD100EB61000568F2
:1046C0004FF68F76354005600568154305600FE0AD
:1046D0000D1FC5F34E052844056848F6FF763540A2
:1046E000056005684FF6FF7606EA02263543056049
:1046F00070BD4163704781637047C1637047016457
:1047000070470A460021018B4FF68F731940114301
:10471000018370470A460021018B48F6FF73194058
:104720004FF6FF7303EA02231943018370470A46D9
:104730000021818B4FF68F7319401143818370479D
:104740000A460021818B48F6FF7319404FF6FF732C
:1047500003EA02231943818370470A460021018B33
:104760004FF6F77319401143018370470A46002141
:10477000018B4FF2FF7319404FF6FF7303EA0223D8
:104780001943018370470A460021818B4FF6F77366
:1047900019401143818370470A460021818B4FF2F3
:1047A000FF7319404FF6FF7303EA02231943818315
:1047B00070470A460021018B4FF6FB7319401143E5
:1047C000018370470A460021018B4FF6FF331940E1
:1047D0004FF6FF7303EA02231943018370470A4629
:1047E0000021818B4FF6FB73194011438183704781
:1047F0000A460021818B4FF6FF3319404FF6FF73B5
:1048000003EA02231943818370470A460021018B82
:104810004FF67F7319401143018370470A46002108
:10482000018BC1F30E014FF6FF7303EA0223194314
:10483000018370470A460021818B4FF67F73194030
:104840001143818370470A460021818BC1F30E0119
:104850004FF6FF7303EA02231943818370470A4628
:104860000021018C4FF6FD731940114301847047FC
:104870000A460021018C4FF6F77319401143018459
:1048800070470A460021018C4FF6DF7319404FF63E
:10489000FF7303EA02131943018470470A4600219B
:1048A000018C4FF67F7319404FF6FF7303EA021332
:1048B0001943018470470A460021018C4FF6FF53CB
:1048C00019404FF6FF7303EA02231943018470472E
:1048D0000A460021018C4FF2FF7319404FF6FF7317
:1048E00003EA02231943018470470A460021018C20
:1048F0004DF6FF7319404FF6FF7303EA0233194375
:104900000184704730B5002301248C40A3B2048C8D
:104910009C430484048C02FA01F5ADB22C43048458
:1049200030BD30B5002304248C40A3B2048C9C43DA
:104930000484048C02FA01F5ADB22C43048430BD2A
:10494000828B4FF2FF331A408283828B4FF6FF73C4
:1049500003EA01231A4382837047F0B50C461546DB
:10496000002100220026078C4EF6FF7C07EA0C0788
:104970000784818B028C4FF6FF7707EA043640F6F6
:10498000FF4739404FF6FF7707EA052739434FF6CF
:10499000FF7707EA0337394345F6FF773A4046F495
:1049A00080573A4381830284F0BD828B4FF6F373C4
:1049B0001A408283828B0A4382837047F0B50C468B
:1049C0001546002100220026078C4FF6FF6C07EAEF
:1049D0000C070784818B028C4FF6FF7707EA0426C9
:1049E0004FF60C7739404FF6FF7707EA03172F434E
:1049F00039434FF2FF573A4046F480773A43818378
:104A00000284F0BD028B4FF2FF331A400283028B07
:104A10004FF6FF7303EA01231A4302837047F0B590
:104A20000C461546002100220026078C4FF6EF7C2D
:104A300007EA0C070784018B028C4FF6FF7707EA21
:104A4000041640F6FF4739404FF6FF7707EA033771
:104A500039434FF6FF7703E00000014000040140B6
:104A600007EA052739434FF65F773A4046F01007CB
:104A70003A4301830284F0BD028B4FF6F3731A4070
:104A80000283028B0A4302837047F0B50C46154639
:104A900000210022068C4FF6FE773E400684018BF3
:104AA000028C4FF60C7631407E1C06EA03162E432C
:104AB00031434FF6F576324044F00106324301832C
:104AC0000284F0BD70B505460C46208850B9238994
:104AD000A28861882846FFF7D8FFE1882846FFF7BB
:104AE000CBFF25E0208804280AD12389A288618889
:104AF0002846FFF794FFE1882846FFF783FF17E079
:104B0000208808280AD12389A28861882846FFF7CF
:104B100055FFE1882846FFF748FF09E02389A2886E
:104B200061882846FFF719FFE1882846FFF708FF4C
:104B300070BD002101804180012181800021C18060
:104B4000018170472DE9F04105460C4600260127FA
:104B5000608808B9022600E00026A088012801D15B
:104B6000022700E001272088A0B92389A288618854
:104B70002846FFF78AFFE1882846FFF77DFF238953
:104B80003A4631462846FFF74AFFE1882846FFF7B4
:104B900039FF13E02389A28861882846FFF73FFF89
:104BA000E1882846FFF72EFF23893A4631462846FA
:104BB000FFF76BFFE1882846FFF75EFFBDE8F08155
:104BC0000146486B70470146886B70470146C86BC9
:104BD00070470146086C70470A884B881A438B88D7
:104BE0001A43CB881A430B891A434B891A438B8982
:104BF0001A43A0F844207047002101804180818041
:104C0000C180018141818181704731B1B0F8442078
:104C100042F40042A0F8442005E0B0F84420C2F37A
:104C20000E02A0F84420704721B1828842F00402AD
:104C3000828004E082884FF6FB731A4082807047BE
:104C400021B1828842F00102828004E082884FF61E
:104C5000FE731A40828070471AB183890B438381A7
:104C600002E083898B4383817047818270470246CB
:104C70000020138A0B400BB1012000E00020704798
:104C8000CA430282704730B5024600200023002448
:104C9000158A05EA0103958905EA010413B10CB1EF
:104CA000012000E0002030BDCA430282704741EA83
:104CB0000203A0F8483070471AB183890B438381FF
:104CC00002E083898B438381704721B1828842F05F
:104CD0000802828004E082884FF6F7731A408280CF
:104CE000704701894FF6F8721140018170470A46FA
:104CF000002101894FF68F731940114301817047DC
:104D000030B504460D4629462046FFF7F0FF2089BE
:104D100040F00700208130BD2DE9F04104460D46EA
:104D200016461F46602D06D13B46012231462046DD
:104D3000FFF775FE05E03B46012231462046FFF7AE
:104D4000A4FE29462046FFF7D2FF208940F0070045
:104D50002081BDE8F08130B50C4600210189C9B23F
:104D60004FF6FF7505EA03251543254329430181C5
:104D700030BD2DE9F04105460E4617469846002401
:104D800043463A4631462846FFF7E5FF2C894FF661
:104D9000F870044044F007044FF68F70044044F06C
:104DA00070042C81BDE8F081F0B504460D4616462E
:104DB0001F463B46324629462046FFF7CCFF208956
:104DC00040F480402081F0BD82884FF68F731A40F6
:104DD000828082880A438280704702894FF6F87386
:104DE0001A40028102890A430281704702894FF604
:104DF0007F731A40028102890A4302817047F0B52D
:104E00000C4615461E460021002200230189028B14
:104E1000038C4FF6F877394021434FF6FC473A4070
:104E200040F201173A434FF6DD773B404FF6FF77EC
:104E300007EA06172F433B43018102830384F0BD39
:104E400021B1828842F08002828004E082884FF69D
:104E50007F731A4082807047A0F85010704700009E
:104E600010B50121C802FEF790FE00214FF400604A
:104E7000FEF78BFE10BD00216C4A116847F6FF62F9
:104E80009143027D83681A4343681A43C3681A43F7
:104E900003681A4303691A431143644A1160704757
:104EA00000210175016041608160C160016170474E
:104EB0005F49086070475D49091F086070475B489B
:104EC000001F006800F0030070470021574B1B1DB6
:104ED00002681A601A1D11686FF30A01D0E90123F4
:104EE0001A43C3681A4303691A4311434F4A0832ED
:104EF000116070470021016041608160C160016103
:104F000070474A480C300068C0B2704708B5014687
:104F10000020009045481030084400900098006838
:104F200008BD0021414B203302681A601B1D4268F6
:104F30001A601A1D116821F0F701D0E902231A4303
:104F400003691A4343691A431143384A28321160EE
:104F500070474FF0FF310160002141608160C16006
:104F600001614161704731482C30006870472F481B
:104F70007C30006870472D497C31086070472B48B1
:104F80004430006870472B49086070472949091D63
:104F900008607047274908310860704725490C317F
:104FA000086070472449086070472349091D08605C
:104FB000704701218143204A0832116070471E4921
:104FC0000C31086070471B4914390860704739B1CB
:104FD000164A383212680243144B38331A6006E01E
:104FE000124A383212688243104B38331A607047C5
:104FF000014600200D4A303212680A400AB10120F1
:1050000000E00020704709493431086070470146CC
:105010000020064A303212680A400AB1012000E03E
:10502000002070470149343108607047042C01406A
:10503000A0802542A0852542AC812542016821F04F
:10504000010101600021016041608160C160016176
:1050500021214161DB49884204D13D21D94A103ADE
:1050600091608CE0D7491831884205D14FF47461C2
:10507000D44A103A916082E0D2493031884205D159
:105080004FF47411CF4A103A916078E0CD4948311D
:10509000884205D14FF07461CA4A103A91606EE0BF
:1050A000C8496031884204D1C749C64A103AD16024
:1050B00065E0C4497831884204D1C449C14A103AF4
:1050C000D1605CE0BF499031884204D1C049BD4AFB
:1050D000103AD16053E0BB49A831884205D14FF066
:1050E0003D51B84A103AD16049E0BA49884204D1EA
:1050F0003D21B84A083A116041E0B649183188426A
:1051000005D14FF47461B34A083A116037E0B149F0
:105110003031884205D14FF47411AE4A083A11601B
:105120002DE0AC494831884205D14FF07461A94A5D
:10513000083A116023E0A7496031884204D1A249AE
:10514000A44A121F11601AE0A2497831884204D1A2
:105150009E49A04A121F116011E09E499031884279
:1051600004D19B499B4A121F116008E09949A8315C
:10517000884204D14FF03D51964A121F116070478A
:1051800010B500220268944B1A40CC680B68234388
:105190004C6923438C692343CC6923430C6A234322
:1051A0004C6A23438C6A23434C6B23438C6B23430D
:1051B0001A430260426922F00702D1E90B3423430B
:1051C0001A4342610B6943604B6883608B68C3601C
:1051D00010BD0021016041608160C16001614161D9
:1051E0008161C161016241628162C16201634163A7
:1051F0008163704721B1026842F00102026003E05E
:10520000026822F001020260704721B1026842F494
:105210000042026003E0026822F40042026070472C
:1052200021B1026842F02002026003E0026822F02D
:10523000200202607047416070470146486880B2B2
:10524000704722B1036843F40023036003E003685E
:1052500023F4002303600161704721B1026842F426
:105260008022026003E0026822F48022026070471C
:105270000AB1016100E0C1607047014600200A6880
:1052800002F400220AB1012000E00020704701462C
:1052900000200A6802F001020AB1012000E00020AB
:1052A0007047014600204A6902F03800704730B567
:1052B00003460A4600200024464DAB4202D2414933
:1052C000103901E04349103902F000550DB14C6826
:1052D00000E00C68414D2C4004EA02050DB10120AC
:1052E00000E0002030BD02463A4B9A4202D23548D7
:1052F000103801E03748103801F000531BB1374B2C
:105300000B40C36002E0354B0B408360704710B523
:1053100001F080034BB122B1436943F08003436144
:1053200003E0436923F08003436180290BD02AB155
:10533000036801F01E042343036004E0036801F0E6
:105340001E04A343036010BD70B502460020002474
:105350000025204EB24202D21A4B103B01E01D4BF9
:10536000103B1F4E0E4036B11E2606EAD1241668A9
:1053700006EA040502E0566906F0800501F00056D1
:105380000EB15C6800E01C68144E344004EA01066B
:1053900016B10DB1012000E0002070BD02460D4B9A
:1053A0009A4202D20748103801E00A48103801F04A
:1053B00000531BB1094B0B40C36002E0074B0B408D
:1053C00083607047106002403D000020400F0020C5
:1053D00000003D20106402403F801CF07D0F7D0FD7
:1053E0003C0F3C0F002041490860091D0860091D61
:1053F0000860091D08603E483C4914310860704748
:1054000000213A498279002A3AD00A461268036894
:105410009A430B461A600A1D126803689A430B1DD3
:105420001A60027911440A6803681A430A602F4A15
:105430000832126803689A432C4B08331A601A1D0D
:10544000126803689A43294B0C331A604279102A78
:105450000ED11A1F126803681A43244B08331A60CE
:105460001A1D126803681A43204B0C331A600DE0B2
:105470001E49427911440A6803681A430A6005E02C
:10548000027911440A6803689A430A607047002150
:10549000016001710C214171002181717047134934
:1054A000103109680143114A1032116070470146FA
:1054B00000200E4A143212680A400AB1012000E0AE
:1054C00000207047094914310860704701460020E8
:1054D000064A143212680A400AB1012000E0002096
:1054E000704702491431086070470000003C0140D9
:1054F000FFFF7F00064C074D06E0E06840F0010327
:1055000094E8070098471034AC42F6D3FAF740FE0F
:10551000CC5C0008EC5C000802E008C8121F08C15F
:10552000002AFAD170477047002001E001C1121F24
:10553000002AFBD1704700000000001000FE0010A0
:105540000001000000FE00003F065B4F666D7D0716
:105550007F6F777C395E79710000000080E0FCFF8E
:10556000FFFF7FFFFEFCF0C10F7FFFFFFEF0C000DA
:105570000000C0F8FEFFFF3F07C1F0FEFFFFFF1F66
:10558000078FCFFFFFFFFEFC0080F0FCFFFFFF7FD7
:105590007F7878797F7FFFFFFCF0C1071FFFFFFE58
:1055A000FCFFFFFF1F07C1F0FEFFFF3F0F0F7FFF54
:1055B000FFFFFFE7070301000203030303030000EB
:1055C0000000000000000003030303030000031FAA
:1055D0003F1F070000020303030301000000000354
:1055E00003030303030000000000000000000000AC
:1055F000002F000000000700070000147F147F1434
:1056000000242A7F2A1200626408132300364955B9
:10561000225000000503000000001C224100000091
:1056200041221C000014083E08140008083E080827
:10563000000000A060000008080808080000606082
:105640000000002010080402003E5149453E0000C1
:10565000427F4000004261514946002141454B31A3
:10566000001814127F10002745454539003C4A496F
:1056700049300001710905030036494949360006E1
:105680004949291E00003636000000005636000049
:1056900000081422410000141414141400004122C4
:1056A000140800020151090600324959513E007C9C
:1056B0001211127C007F49494936003E4141412286
:1056C000007F4141221C007F49494941007F09096F
:1056D0000901003E4149497A007F0808087F00001F
:1056E000417F4100002040413F01007F08142241DA
:1056F000007F40404040007F020C027F007F040892
:10570000107F003E4141413E007F09090906003EED
:105710004151215E007F0919294600464949493116
:105720000001017F0101003F4040403F001F204039
:10573000201F003F4038403F0063140814630007F7
:105740000870080700615149454300007F4141004E
:1057500000552A552A55000041417F0000040201EE
:1057600002040040404040400000010204000020CC
:1057700054545478007F484444380038444444200A
:1057800000384444487F00385454541800087E09B7
:1057900001020018A4A4A47C007F0804047800007F
:1057A000447D4000004080847D00007F102844003C
:1057B0000000417F4000007C04180478007C08044D
:1057C000047800384444443800FC24242418001889
:1057D000242418FC007C0804040800485454542075
:1057E00000043F444020003C4040207C001C2040FE
:1057F000201C003C4030403C004428102844001C41
:10580000A0A0A07C004464544C4414141414141438
:105810000000000000008000000000000000000008
:105820000000000010002000408000000000000088
:105830000000000000000000000000000000000068
:105840000000000000000000000000000000000058
:1058500000000000000000000000000000000080C8
:1058600080808080808080808080808080808000B8
:1058700000404040404040404040400000000000A8
:10588000000000000000000000002020E8E0F4FE1E
:10589000F6F6F6F0F0F4F0E0E0F0F0F0F0F0E0A072
:1058A000A020202020202020202020202020202078
:1058B0000000000010101010101010101010101028
:1058C0001010101010101010101000000000000038
:1058D0000808080A070777FFFFFFFFFF7FFFFFFFAA
:1058E000FF7F7F7F7FFFFFFFFFFFFFFFFFFFFFFFC8
:1058F000FFFFFFFFFFFFFFFFFFFFFFFFFFFFFFFFB8
:10590000FFFF00000000000000010000040800107C
:105910001000202020202020200000000011121064
:10592000040808081800200444048404000000004F
:105930000000000000000202020202020202020253
:10594000020202000000000001010101000000004D
:1059500000000000000000000000000000000080C7
:10596000800000404000202020000010101000089F
:1059700008080808080004040404040405070707CD
:10598000070F0F0F0F0F0F0F0F0F0F0F0F0F07073F
:105990000702030202030202020282C0C0C0C0E189
:1059A000E1E1F1F1B10507DDF8F0E00000000000F1
:1059B00002020200000404040400000808080810A1
:1059C000100020004040808000000202030302819A
:1059D0008989C9D1D0F6EEDAF3FBFBFFFFFFFFFFA9
:1059E000FFFFFFFFFFFFFFFFFFFFFFFFFFFBFBFBD3
:1059F000F3F3F3F30000000000000000000080005B
:105A00000000000000000000000000000000000096
:105A10000000000000000000000000000000010184
:105A20000204F800008080404040404000202020D8
:105A300020000000101010101010100000000808C6
:105A4000080000040404000002020200000101003A
:105A50000000000000000000000000000000000046
:105A600000000000000000808080800000404000B6
:105A700000004040404040404040404040404000E6
:105A80000000008080C0E0F0F0F8FCFBFFFFBFFFEB
:105A9000FFFFFFFFFFFFFFFEF383FFFFFFFFF8F0B5
:105AA000E080808080808080808080808080808096
:105AB00080800000000000000000000102020606D5
:105AC0000E1717270F4F07870707070F070F0F0737
:105AD0000F0F0F0F07070507070703020303030351
