:020000040800F2
:1000000008D900205D4B000881480008834800089B
:10001000874800088B4800088F480008000000004F
:1000200000000000000000000000000093480008ED
:10003000954800080000000097480008994800080B
:10004000774B0008774B0008774B0008774B000888
:10005000774B0008774B0008774B0008774B000878
:10006000DD46000841470008774B0008774B000841
:10007000774B0008774B0008774B0008774B000858
:10008000774B0008774B0008774B0008774B000848
:10009000774B0008774B0008774B0008774B000838
:1000A000774B0008774B0008774B0008774B000828
:1000B0003F400008654100088D420008774B00086A
:1000C000774B0008774B0008774B0008774B000808
:1000D000774B0008D1450008774B0008774B0008A4
:1000E000774B0008774B0008774B0008774B0008E8
:1000F000774B0008774B0008774B0008774B0008D8
:10010000774B000891390008774B0008774B0008BF
:10011000774B0008774B0008774B0008774B0008B7
:10012000774B0008774B0008774B0008774B0008A7
:10013000774B0008774B0008774B0008774B000897
:10014000774B0008774B0008774B0008774B000887
:10015000774B0008774B0008774B0008774B000877
:10016000774B0008774B0008774B0008774B000867
:10017000774B0008774B0008774B0008774B000857
:10018000774B0008774B0008DFF80CD009F00AFD28
:10019000004800473302000808D9002010B5044683
:1001A000206980474FF47A70A1688847C848006882
:1001B000401CC749086008460068642807D1C54844
:1001C0000068401CC34908600020C149086010BD98
:1001D00010B50446C048006818B1BF4909680869ED
:1001E0008047BE480068D8B9BB48006838B904F0F9
:1001F0006CF8B9490860AFF25B00096848610020FB
:10020000B4490860B2490860B348006881684FF497
:100210007A7088470120B2490860B049086004E05C
:100220000020AF490860AD4908600020AD49086072
:1002300010BD4FF4A06004F0A3FC03F06FFDAA4AC8
:100240000221032003F02FFE04F02CF804F03DF807
:10025000064603F055FE03F022FD012200214FF473
:10026000E13004F07CF90025002400F0B5FAA82064
:1002700004F018FB04F082FA00F0AEFA00F0FFFA86
:1002800009F078FB99490122086899A108F0EAF879
:10029000A0B998A000F06AFA00281FDC0DE0904891
:1002A000001D006808B9012000E000208C49091DEC
:1002B00008604FF47A7004F036FBF0E70DE08848F0
:1002C000001D006808B9012000E000208449091DD4
:1002D00008604FF47A7004F026FBF0E700208049B4
:1002E00008607E49086000F065FA04460A20B4FB05
:1002F000F0F100FB114082490E5C3146072003F00B
:1003000079FC6420B4FBF0F100FB11400A21B0FB42
:10031000F1F07B490E5C3146062003F06BFC4FF494
:100320007A70B4FBF0F100FB11406421B0FBF1F0F6
:1003300073490E5C3146052003F05CFC42F21070FC
:10034000B4FBF0F100FB11404FF47A71B0FBF1F017
:100350006B490E5C3146042003F04CFC42F21070F5
:10036000B4FBF0F066490E5C3146032003F042FC1A
:1003700063480178022003F03DFC614801780120C8
:1003800003F038FC5E480178002003F033FC9DE068
:10039000504800681E287DDC5A48006800F0F000D4
:1003A000F0B3504804680A20B4FBF0F100FB1140A0
:1003B00053490E5C3146072003F01CFC6420B4FB5B
:1003C000F0F100FB11400A21B0FBF1F04C490E5C4A
:1003D0003146062003F00EFC4FF47A70B4FBF0F1C6
:1003E00000FB11406421B0FBF1F045490E5C314641
:1003F000052003F0FFFB42F21070B4FBF0F100FBAC
:1004000011404FF47A71B0FBF1F03D490E5C31467A
:10041000042003F0EFFB3B48006800F00F0000E011
:1004200001E0384908602A4800680A2190FBF1F28F
:1004300001FB120032490E5C3146032003F0DAFB67
:1004400023480068642190FBF1F201FB12000A21AD
:1004500090FBF1F02A490E5C3146022003F0CAFB02
:100460001C4800680A2190FBF1F201FB12002449AC
:10047000085C40F080063146012003F0BBFB1548C4
:100480000068642190FBF1F201FB12000A2190FB4D
:10049000F1F000E005E01A490E5C3146002003F05F
:1004A000A9FB03F076FB184908606D1C0F2004F0CF
:1004B0003AFA0A2D0AD10A48001D006808B901203D
:1004C00000E000200649091D0860002560E70000E3
:1004D000100000200C000020080000200000002078
:1004E00098024042C4000020D1010008B8C8002092
:1004F000323A0000323A2F736D622E666D32000080
:10050000F89B0008CC0000200400002070B50346D2
:1005100000210024052B01DA002070BD581EA74DD4
:10052000285C7C2801D00020F7E7A44800787C28CC
:1005300001D00020F1E7491CA048405C302803D0DE
:100540009E48405C312801D1891C07E09B48405CF3
:100550007C2801D1491C01E00020DEE79748405C7F
:100560007C2812D19648006849F63F45A8420ADA2D
:100570000020944D924E3668A85591480068401C62
:100580008F4D286023E00120C7E700220BE0881888
:100590008A4D285C2E2805D0C2F107050120A8400D
:1005A0002043C4B2521C082AF1DB8548006849F692
:1005B0003F45A84209DA8348814D2D68445580485B
:1005C0000068401C7E4D286001E00120A5E7012065
:1005D000A3E72DE9F04106460F4600252DE0705DAA
:1005E0007C2829D1705D75490870012421E0642CB4
:1005F00003D14FF0FF30BDE8F0812819B84201D196
:100600002846F8E72819305C0A2804D02819305CFD
:100610006A4908550CE000206849085525442046E1
:10062000FFF774FF10B94FF0FF30E4E7002402E059
:10063000641C642CDBDB00BF6D1CBD42CFDB384685
:10064000D9E72DE9FC5F82464FF00009C846002635
:1006500000205B49086088E04FF00008002700BFD9
:10066000002403E0002058490855641CB4F5006FCD
:10067000F8D3002403E0002054490855641CB4F565
:10068000006FF8D34946504608F06EFA054605B1AA
:1006900040E001AB4FF400624B49504608F004F8CB
:1006A000054605B136E04946504608F05DFA054674
:1006B00005B12FE06B464FF400624449504607F005
:1006C000F3FF054605B125E0019828B9019818B94E
:1006D0003B480068BDE8FC9F4FF0000B002409E098
:1006E0003948005D3949095D884202D04FF6FF7BE9
:1006F00003E0641CB4F5006FF2D300BF4FF6FF7047
:10070000834502D108F1010801E04FF0FF08B8F17C
:10071000040FA5DB00BFB8F1FF0F02D06FF001009E
:10072000D8E709F50069002405E02748005DA11914
:10073000274A5054641CB4F5006FF6D306F50061E7
:100740002348FFF746FF0746002F02DA1C480068DF
:10075000C0E706F50060C61B002404E0E0191C4950
:10076000085C0855641CB442F8DB75E770B50446B4
:10077000002601222146174807F09FFE05460DB1CD
:10078000701E70BD1348FFF75CFF0646114808F065
:10079000A0F93046F5E7024609480068884206DDC0
:1007A00012B14FF0FF3070470648405CFBE74FF056
:1007B000FF30F8E70248006870470000409D0020C5
:1007C0001400002000010020A49D0020A4A500200A
:1007D000A4AD00205CB900201CB50121084604F03E
:1007E00063FDF020009001208DF8040000208DF8BA
:1007F000060003208DF8050001208DF807006946EA
:10080000114804F0B3FA0120009000208DF8040094
:1008100002208DF8050001208DF8070069460B487D
:1008200004F0A4FA4021084804F01CFB802106488B
:1008300004F018FB1021044804F016FB20210248A4
:1008400004F012FB1CBD0000000002400008024042
:1008500070B503460C4603E014F8015B03F8015B36
:10086000151EA2F10102F7D170BD30B5034601E0BB
:1008700003F8011B141EA2F10102F9D130BD30B5FD
:10088000002412E0534800EB0410C068514901EB0A
:100890000411896890FBF1F54E4901EB04112A46D9
:1008A00048680021FFF7E1FF641C002CEAD030BD4E
:1008B000F0B505460022002609B1501EF0BD45489E
:1008C00000EB01108068B5FBF0F3424800EB01102B
:1008D0008068B5FBF0F700FB175000B15B1C0022ED
:1008E00020E03C4800EB01104068805C08B9761CB1
:1008F00000E000269E4214D1D01A421C002408E0D9
:10090000344F07EB01177F6802EB040C07F80C303B
:10091000641C9C42F4D32F4800EB011080685043C4
:10092000CCE7521C2B4800EB0110C068294F07EBA5
:100930000117BF6890FBF7F09042D2DC4FF0FF3018
:10094000BCE7F0B50346234800EB0110C0689842AD
:1009500018D9204800EB01108068B3FBF0F41D4863
:1009600000EB01104068055D002207E00020194EF1
:1009700006EB01167668A718F055521CAA42F5DB63
:100980000020F0BD0220FCE770B504460D4605B915
:1009900070BD104800EB041000682E1A2146304646
:1009A000FFF7CFFF00BFF3E770B505460E460EB95F
:1009B000002070BD29463046FFF77AFF0446601CD0
:1009C00008B90020F5E7034800EB05100068204453
:1009D000EFE70000E89B000830B502460B46002018
:1009E000002113E00C4601EBD4756D10A1EB450519
:1009F000954209D123FA01F404F0010424B14D1009
:100A00000124AC400444A0B24C1CE1B21829E9DB3B
:100A100030BD2DE9F74F81B0054616460020009005
:100A20000024814601200299FFF7D6FF07460020E7
:100A30000299FFF7D1FF824631460120FFF7CCFF34
:100A4000804631460020FFF7C7FF834687EA0A0049
:100A500080EA080080EA0B00009040F6FF710098E1
:100A6000884215D187EA08042046E11704EB51714A
:100A70004FEAE109E11704EB5171C910A4EBC1027F
:100A80000121914015F80920514005F8091003E0B3
:100A9000012004B0BDE8F08F0020FAE700B58FB068
:100AA0000121582004F000FC0121084604F034FC28
:100AB0000C220021FB4804F0E4F90C220121F94842
:100AC00004F0DFF90C220421F64804F0DAF90C22D4
:100AD0000521F44804F0D5F90C220721F14804F06F
:100AE000D0F90C220B21EF4804F0CBF90C2211466F
:100AF000EC4804F0C6F90C220E21EA4804F0C1F9D2
:100B00000C220F21E74804F0BCF94DF6B3000D901C
:100B100002208DF8380003208DF8390000208DF870
:100B20003A008DF83B000DA9DE4804F01FF90C22B5
:100B30000721DD4804F0A5F90C220821DA4804F069
:100B4000A0F90C220921D84804F09BF90C220A21B3
:100B5000D54804F096F94FF4F0600D9002208DF81E
:100B6000380003208DF8390000208DF83A008DF808
:100B70003B000DA9CC4804F0F9F840200D9000206E
:100B80008DF8380003208DF8390001208DF83A00E7
:100B90008DF83B000DA9C54804F0E8F8022000904C
:100BA0000520019003200290012003901020049062
:100BB00000200590069007904FF400300890012027
:100BC00009900A90CDF82CD0CDF830D004A805F0CB
:100BD0000FF80121102005F068F80FB000BD0020CB
:100BE0007022B34B1A701206117801F001020AB19B
:100BF000012006E001F04002402A01D1402000E03F
:100C00000020704730B504464025FFF7E8FF054651
:100C100007E0FFF7E4FF0546012D01D1284630BD6E
:100C2000641E402D01D0002CF3D104B98025284644
:100C3000F5E710B5FF209E4908704FF4FA60FFF702
:100C4000E1FF402801D1002010BD0120FCE7002079
:100C50009021974A11700021964A11704FF0E0419F
:100C600008684FF07F4101EA00614FF47F0202EA19
:100C7000002211434FF47F4202EA1022114341EA5D
:100C8000106070472DE9FF5F074616461D461DB9E7
:100C9000002004B0BDE8F09F701987490988884298
:100CA00001DB0120F5E780208149087081490E7041
:100CB00030120870019808700198000A087000242A
:100CC00001E000BF641C282CFBD34FF00008C34692
:100CD000C246E91705EBD1514912A5EB412149B1B3
:100CE000002404E0385D4FF0E0410870641CAC4221
:100CF000F8D374E02846E91705EBD151C1F3472B2F
:100D00003046F11706EBD151C1F3472A4FF00008E6
:100D100034E04FF02040006E40F040004FF02041A2
:100D20000866002405E038784FF0E04108707F1C29
:100D3000641CB4F5007FF6D3002401E000BF641CFE
:100D4000322CFBD300BF4FF02040406E00F040003B
:100D50000028F8D04FF02040416F08EB0A025748B6
:100D600040F822104FF02040006E20F040004FF07D
:100D70002041086608F1010000F0FF08D845C8DBF3
:100D8000002401E000BF641C322CFBD34A48408899
:100D9000103000EB8A0485204549087045490C70E5
:100DA000200A0870002401E000BF641C322CFBD331
:100DB000424800EB8A0700240FE04FF0000808E0EB
:100DC00038784FF0E04108707F1C08F1010000F016
:100DD000FF08B8F1040FF3DB641C5C45EDD3102071
:100DE00033490870002401E000BF641CB4F5FA7FA9
:100DF000FAD3334C07E02D481030006800F0400073
:100E000000B102E0641E002CF5D100BF0CB9022035
:100E10003FE7C820FFF7F6FE8146B9F1400F02D147
:100E20004FF000090AE0B9F1010F02D14FF00109BA
:100E300004E0B9F1800F01D14FF00209484628E7DC
:100E40002DE9F0478146884616461F4617B900200F
:100E5000BDE8F087F01918490988884201DB0120B4
:100E6000F6E780201249087012490E70301208709F
:100E700081F800804FEA18200870002401E000BFCC
:100E8000641C322CFBD3002404E04FF0E040C0F897
:100E90000090641CBC42F8D310200549087000245F
:100EA00012E00000000C0240001002400018024056
:100EB000000001700000027084BB00209CC3002071
:100EC00080A2190000BF641CB4F5FA7FFAD3F74C76
:100ED00006E0F748006800F0400000B102E0641E40
:100EE000002CF6D100BF0CB90220B1E7C820FFF7F3
:100EF00089FE0546402D01D1002505E0012D00D1D8
:100F000002E0802D00D102252846A1E72DE9FC4F03
:100F100007468A4690461D4615B90020BDE8FC8F5D
:100F200008EB0500E3490988884201DB0120F5E769
:100F30000020E1490870E14981F800804FEA28204B
:100F4000087081F800A04FEA1A2008703020DA49B2
:100F50000870002401E000BF641CB4F5FA7FFAD3E6
:100F6000D24C06E0D248006800F0400000B102E038
:100F7000641E002CF6D100BF0CB90220CEE7E917A1
:100F800005EBD1514912A5EB412151B1002404E0F8
:100F90004FF0E04000783855641CAC42F8D3002094
:100FA000BCE72846E91705EBD151C1F3472B404672
:100FB0004FEAE87108EBD151C1F3472601974FF092
:100FC000000934E04FF02040006E40F040004FF048
:100FD00020410866002405E04FF0E04000783870BA
:100FE0007F1C641CB4F5007FF6D3002401E000BF31
:100FF000641C322CFBD300BF4FF02040406E00F049
:1010000040000028F8D04FF02040416F09EB060265
:10101000AB4840F822104FF02040006E20F0400016
:101020004FF02041086609F1010000F0FF09D945A1
:10103000C8DB002401E000BF641C322CFBD39D48B8
:101040004088103000EB860405209B4908709B49BE
:101050000C70200A0870E02097490870002401E015
:1010600000BF641C322CFBD39548103000EB860780
:10107000002405E04FF0E040007838707F1C641CCD
:101080004FEA8B00A042F5D8002425E0A1198C4836
:10109000103050F82110A219103850F82200814267
:1010A00019D004EB060C864B53F82C2004EB060CED
:1010B000103353F82C104FF4007C019B0CFB0430D0
:1010C000FFF7A7FC8146B9F1000F02D08220009003
:1010D00001E081200090641C5C45D7D300981DE797
:1010E0002DE9F0478146884616461F46DDF820A0C8
:1010F00017B90020BDE8F087F0196E4909888842C9
:1011000001DB0120F6E700206B4908706B490E7087
:101110003012087081F800804FEA182008703020E3
:1011200065490870002401E000BF641CB4F5FA7F33
:10113000FAD35E4C06E05E48006800F0400000B163
:1011400002E0641E002CF6D100BF0CB90220D1E7EA
:10115000002406E04FF0E0400068484500D002E07F
:10116000641CBC42F6D300BFAAF80040002401E092
:1011700000BF641C0A2CFBD34C4C06E04C480068B2
:1011800000F0400000B102E0641E002CF6D100BF68
:101190000CB90220AEE7C820FFF734FD0546402D0C
:1011A00001D1002505E0012D00D102E0802D00D104
:1011B000022528469EE72DE9F05F074689469246BC
:1011C0001E460A9DCA4502D10120BDE8F09F701954
:1011D00038490988884201DB0120F6E700203649BA
:1011E000087036490E703012087081F800904FEA8E
:1011F00019200870352030490870002401E000BF34
:10120000641CB4F5FA7FFAD32E4C06E02848006837
:1012100000F0400000B102E0641E002CF6D100BFD7
:101220000CB90220D1E785202349087023490E70AC
:101230003012087081F800A04FEA1A2008700024CC
:1012400001E000BF641C322CFBD3002D0FDDE91739
:1012500005EBD1514912A5EB412149B1002404E02D
:10126000385D4FF0E0410870641CAC42F8D38BE06D
:101270000020002200212B464FEAE57C05EBDC5CD8
:10128000CCF3472233464FEAE67C06EBDC5CCCF33A
:10129000472100BF44E04FF020431B6E43F0400362
:1012A0004FF0204CCCF86030002414E080A21900EC
:1012B0001018024084BB0020000001700000027082
:1012C0009CC30020004533003B784FF0E04C8CF885
:1012D00000307F1C641CB4F5007FF5D3002401E0CE
:1012E00000BF641C322CFBD300BF4FF020435B6E69
:1012F00003F04003002BF8D04FF02043D3F874C024
:1013000000EB010BFE4B43F82BC04FF020431B6E4C
:1013100023F040034FF0204CCCF86030431CD8B28F
:101320009042B8DB002401E000BF641C322CFBD3E8
:10133000F44B5B88103303EB81048523DFF8C8C3CB
:101340008CF80030DFF8C4C38CF80040230A8CF816
:101350000030002401E000BF641C322CFBD3E84BBA
:1013600003EB810700240CE0002007E03B784FF0FE
:10137000E04C8CF800307F1C431CD8B20428F5DB0D
:10138000641C9442F0D300BF1020DF490870002491
:1013900001E000BF641CB4F5FA7FFAD3DC4C06E030
:1013A000DC48006800F0400000B102E0641E002C40
:1013B000F6D100BF0CB9022007E7C820FFF722FCD6
:1013C0008046B8F1400F02D14FF000080AE0B8F1B2
:1013D000010F02D14FF0010804E0B8F1800F01D1F4
:1013E0004FF002084046F0E62DE9F04781460F46EF
:1013F0001646984606EB0800C2498988884202DBF7
:101400000120BDE8F0878020BF490870BF490E70F9
:10141000082008700F70380A0870002401E000BF2F
:10142000641C322CFBD3002405E019F804004FF0B3
:10143000E0410870641C4445F7D31020B24908709D
:10144000002401E000BF641CB4F5FA7FFAD3B24C6B
:1014500006E0B048006800F0400000B102E0641E01
:10146000002CF6D100BF0CB90220CAE7C820FFF754
:10147000C9FB0546402D01D1002505E0012D00D115
:1014800002E0802D00D102252846BAE770B5054656
:101490000C46D0189B4EB688B04201DB012070BDCF
:1014A0000020994E3070994E3270082030703470A0
:1014B000200A30703020944E3070002101E000BFCF
:1014C000491CB1F5FA7FFAD3934906E091480068C8
:1014D00000F0400000B102E0491E0029F6D100BF33
:1014E00009B90220DBE7002104E04FF0E04000787A
:1014F0006854491C9942F8D30020D0E770B50646DD
:10150000602081490870B60180490E70300A087069
:10151000D0207D490870002501E000BF6D1CB5F5A5
:10152000FA7FFADB7A4D06E07A48006800F0400066
:1015300000B102E06D1E002DF6D100BF0DB90220F2
:1015400070BDC820FFF75EFB0446402C01D100248B
:1015500005E0012C00D102E0802C00D102242046BD
:10156000EEE718B504466748C08800FB04F1012384
:10157000DA026846FFF7CAFC9DF80000FF2801D098
:10158000012018BD5F48C0886043411C0123DA0276
:101590006846FFF7BBFC9DF80000FF2801D0012042
:1015A000EFE70020EDE77CB500246FE0002669E05E
:1015B0002046FFF7A3FF002511E001A805EB8411E9
:1015C0004FF4047300220090501EFFF789FDBDF810
:1015D0000400B0F5047F00D003E0681C85B2402D04
:1015E000EBDB00BF402D10D000200190A1010123B2
:1015F000DA0201A8FFF7F8FE012000EB8411034690
:10160000C20201A8FFF7F0FE3EE0002509E005EB6D
:1016100084114FF4047300221046FFF711FC681C7C
:1016200085B2402DF3DB002511E001A805EB841104
:101630004FF40473002200901046FFF751FDBDF8EF
:101640000400B0F5047F00D003E0681C85B2402D93
:10165000EBDB00BF2046FFF751FF402D10D00020EC
:101660000190A1010123DA0201A8FFF7BDFE0120CC
:1016700000EB84110346C20201A8FFF7B5FE03E0A8
:10168000701C86B2032E93DB00BF641CB4F5806F20
:101690008CD300207CBD3EB50A230022114668464B
:1016A000FFF734FC9DF80300582806D19DF8001080
:1016B0009DF8010001EB00203EBD0025002406E05E
:1016C0002046FFF74EFF00B96D1C601C84B20D4828
:1016D0004089A042F4DC2846EEE710B5FFF7DEF9BA
:1016E000FFF7A7FA4FF40060064948804020888041
:1016F000000108814FF4046008804020C8800DE09C
:101700009CC3002084BB0020000001700000027018
:10171000004533001018024080A2190000014881E2
:10172000002010BD2DE9F843064600270025A846F5
:10173000002405E04FF6FF71FE4820F81410641CE9
:10174000FC4814384089A042F4D80020F9491439E3
:10175000C8818881002453E0F6481438C08860436B
:10176000411C042300226846FFF790FE9DF800000C
:10177000FF2810D17EB19DF802009DF8031000EB08
:101780000125EC481438C08800FB04F10423002232
:101790006846FFF77BFE9DF80000FF2822D19DF8E8
:1017A00002009DF8031000EB01274FF6FF70854201
:1017B0000CD0E04814384089A84213D9DD4820F8FD
:1017C0001540601CDB49143948820BE0D9481438B5
:1017D0004089B84206D9D74820F81740601CD5493F
:1017E000143948829DF80100CC2801D108F1010884
:1017F000D0481438C089401CCE491439C881641CB3
:10180000CC4814384089A042A6D8CA491439A1F856
:101810000C8000240DE0C74830F81400C549143985
:101820004989884204DB601CC2491439088205E0FA
:10183000641CC04814384089A042ECD800BFBD48A1
:101840001438008A012802DA0220BDE8F88300205B
:10185000FBE738B5044600200090B6481438C0882D
:1018600000FB04F1012300226846FFF70FFE9DF8FC
:101870000000FF2811D1AF481438C0886043411CD4
:10188000012300226846FFF701FE9DF80000FF28B3
:1018900001D1002038BD0120FCE70220FAE7F8B5AD
:1018A00000260020A3491439C88100240CE02046FA
:1018B000FFF7CFFF054635B99E481438C089401C54
:1018C0009C491439C881641C9A4814384089A04244
:1018D000EDD898481438C089642801DA0120F8BD91
:1018E00094481438C08900EB80000001642190FB0B
:1018F000F1F600200090002423E02046FFF7A9FF26
:101900000546EDB92046FFF7F9FD8A481438C0882E
:1019100000FB04F102231A466846FFF765FD85487F
:101920001438C0886043411C02231A466846FFF7FA
:101930005BFD0098401C00900098B04200D105E08B
:10194000641C7C4814384089A042D6D800BF0120CE
:10195000FFF7E8FE08B10220C1E70020BFE710B59D
:10196000FFF7BBFE08B1012010BD0120FFF7DAFE32
:101970000446642C01D1FFF716FE2CB1FFF78FFF50
:1019800004460CB10220EFE70020EDE738B504462D
:101990000020009067481438C08800FB04F1012340
:1019A00000226846FFF720FD62481438C088604373
:1019B000411C012300226846FFF716FD38BD38B5EB
:1019C0000446002000905B481438C08800FB04F1F6
:1019D00001231A466846FFF759FD9DF80000FF28CD
:1019E00001D1002038BD0120FCE738B504460D4682
:1019F000CC208DF80000E8B28DF80100280A8DF89F
:101A000002004C481438C0886043411C0323012263
:101A10006846FFF7E9FC47481438C08800FB04F12A
:101A200001231A466846FFF7DFFC38BD38B5044687
:101A3000CC208DF800003F481438C08800FB04F12A
:101A400001231A466846FFF7CFFC38BD38B50020A1
:101A50000090002437481438448A23E0354814386D
:101A6000C0886043411C042300226846FFF70EFD36
:101A70000098401CA8B92F481438C08800FB04F116
:101A8000042300226846FFF701FD0098401C40B97E
:101A900028481438408A401C264914394882204678
:101AA00038BD641C234814384089A042D6D84FF072
:101AB000FF30F5E72DE9F04107460E46741C1DE0A6
:101AC0001C481438008AA04203DC1A481438008AE3
:101AD000241A2046FFF773FF78B9002508E015485F
:101AE00030F81500A04202D12846BDE8F0816D1CF7
:101AF000104814384089A842F1DC641C0D481438A1
:101B0000008A3044A042DBD84FF0FF30EDE72DE9EA
:101B1000FF4F85B0054690469946DDF848A0002461
:101B200000200490029003481438C1880698B0FB46
:101B3000F1F201E098BB002001FB12000290F8488E
:101B4000296830F8116000BF31462868FFF7B2FFFE
:101B50000390F348143840890399884203D2012046
:101B600009B0BDE8F08FEE48039930F811700024F9
:101B700049E00298844230D3BAF1000F2DD0E848F2
:101B800014384088A0EB0800504507D2E4481438C8
:101B90004088A0EB08001FFA80FB01E01FFA8AFBD7
:101BA000B9F1000F12D0DE481438CDF800B0C0886B
:101BB00007FB0042DA481438C08806FB0041434660
:101BC0004846FFF7F8FA0490D94401E00020049059
:101BD0004FF00008AAEB0B0A10E000200090D0485C
:101BE0001438C08807FB0042CD481438C08806FB73
:101BF000004100231846FFF7DEFA0490049800B174
:101C0000A2E7601C84B2C6481438C088A042B0DC89
:101C1000C3481438C088A04219D138462968FFF754
:101C2000E4FEBF482A6820F81270039A20F8126078
:101C30003046FFF763FCBA481438C08800FB06F151
:101C400002231A4603A8FFF7CFFB03982860002061
:101C500086E701460022B2481438008A884202D240
:101C60004FF6FF707047AE4830F811201046F9E784
:101C70002DE9F04F87B083460C469046002500BF03
:101C800086E0A7481438408890FBF4F0A449143942
:101C9000C98848430BEB0501B1FBF0F00590A04863
:101CA0001438008AC01E0599884203D8022007B064
:101CB000BDE8F08F0598FFF7CCFF814698481438AF
:101CC0004189494501D80120F1E7954814384088F9
:101CD00090FBF4F092491439C98848430BEB050195
:101CE000B1FBF0F200FB121000FB04FA8C48143830
:101CF0004088BAFBF0F08A491439C98809FB010011
:101D00000490874814384088BAFBF0F100FB11A01A
:101D100003908348143841880398081A86B296FBCA
:101D2000F4F086B2A8EB050087B2B74200DB374675
:101D300007FB04F006907A481438C08878491439B3
:101D400049884843A0EB0A00B0FBF4F086B2A8EB48
:101D5000050087B2B74200DB374607FB04F0069068
:101D60006F481438C1880498B0FBF1F201FB1200EF
:101D7000029006980090039882B2002305A8029969
:101D8000FFF7C5FE08B1032091E7781E05446D1CDE
:101D90004545FFF476AF002089E72DE9FF4F87B076
:101DA00014469A46002006900025401E029000BF6F
:101DB000C4E05B481438408890FBF4F0584914396B
:101DC000C988484308992944B1FBF0F0049054486D
:101DD0001438008AC01E0499884203D802200BB030
:101DE000BDE8F08F0498FFF734FF06464C481438DE
:101DF0004189B14201D80120F1E7494814384088AF
:101E000090FBF4F046491439C9884843089929449D
:101E1000B1FBF0F200FB121000FB04FB4048143849
:101E20004088BBFBF0F03E491439C98806FB01002D
:101E300003903B4814384088BBFBF0F100FB11B91C
:101E4000374814384088A0EB090080B20590BDF8EF
:101E5000140090FBF4F080B20590AAEB050087B265
:101E6000BDF81400874201DBBDF8147007FB04F8CD
:101E700005A81FFA89F2C8F38F0300904FF0FF30D6
:101E80000399FFF72DF90690069810B103200690EC
:101E90004CE0BDF81400B0EB980F0FD11FFA88F397
:101EA0001FFA89F203990798FEF7ECFE0298B042F8
:101EB00006D03046FFF7BAFD029601E001200690F9
:101EC000069801282ED116481438C08814491439B0
:101ED00049884843A0EB0B00B0FBF4F080B20590BA
:101EE000AAEB050087B2BDF81400874201DBBDF8FC
:101EF000147007FB04F80A481438C1880398B0FB33
:101F0000F1F201FB12001FFA89F2CDE900800146CF
:101F100004A8079BFFF7FBFD20B103205FE700004B
:101F200098BB00200698012802DD00BF032056E779
:101F3000781E05440798404407906D1C5545FFF4F2
:101F400038AF00204BE72DE9FC4704460D464FF023
:101F5000000857E000271EE001A800909748B0F85D
:101F600002904FEAE97009EB907083109348C088A3
:101F700000FB04F100222846FFF7B2F88F49488899
:101F8000C11700EB9171BDF80420B2EBA10F00D096
:101F900005E0781C87B28948C088B842DCDC00BF05
:101FA0008648C088B84202D10020BDE8FC872046A0
:101FB000FFF7A4FA06460EBB681CF8B1002001909A
:101FC00016E07E48B0F802904FEAE97009EB907095
:101FD00083107A48C088BDF8042004FB0021002249
:101FE0002846FEF72DFFBDF80400401C80B201908A
:101FF0007248C088BDF804108842E2DC08F1010094
:102000001FFA80F8B8F1020FA4DB0120CDE72DE91B
:10201000FF4F85B014469B464FF00008002500BFD7
:10202000C7E06648408890FBF4F16448C0884143AB
:1020300006982844B0FBF1F004906048008AC01E66
:102040000499884203D8022009B0BDE8F08F0498B3
:10205000FFF7FFFD814659484189494501D80120D4
:10206000F2E75648408890FBF4F05449C988484349
:1020700006992944B1FBF0F200FB12106043039073
:102080004E4841880398B0FBF1F04C49C98809FBE0
:1020900001074A4841880398B0FBF1F201FB120A9C
:1020A00046484088A0EB0A00B0FBF4F086B2ABEBE8
:1020B0000500B04202D2ABEB050086B206FB04F08D
:1020C00083B21FFA8AF239460598FEF71FFF804651
:1020D000B8F1810F61D106FB04F083B21FFA8AF2D6
:1020E00039460598FEF712FF8046B8F1810F52D1AC
:1020F0003248C088B7FBF0F100FB1170029006FB7C
:1021000004F01FFA8AF2009004A8059B0299FFF7D9
:10211000FEFC2A48C088B7FBF0F04FF0FF31029078
:10212000FFF711FF8046B8F1000F0FD12348C08898
:10213000B7FBF0F000210290FFF705FF80461F4833
:10214000C088B7FBF0F00290FFF7D8F9B8F1000FA4
:1021500018D04846FFF71AFCFFF778FCC0B202908F
:10216000164841890298814201DC01206CE713483E
:10217000C088029A00FB02F102231A4604A8FFF766
:1021800033F908E00D48C08800FB09F102231A4624
:1021900004A8FFF729F94FF00008B8F1820F01D128
:1021A0004FF00008059804FB06000590701E0544DA
:1021B0006D1C5D45FFF435AF002045E784BB002072
:1021C0000020FE490860091D0860091D0860091DFE
:1021D0000860FA4924310860091D0860091D08607B
:1021E000F748F649383108600020091D086070473B
:1021F00001460020012900D011B9F24B197000E00E
:10220000262070470146ED4A121D106820F0FF009D
:1022100008431060704770B5044606E0E748343064
:10222000056805F0450000B100E0F7E700BF0420B5
:1022300004F000FE20B1042004F007FE032070BD6E
:10224000012004F0F7FD20B1012004F0FEFD012083
:10225000F5E7DA4810300068A04201D01020EEE720
:1022600040F2FF5004F0F1FDD4481430006808211A
:102270000840C0B2E3E72DE9FC4107460D460026C1
:1022800000240020009001900820CF490860102011
:102290004860402088600020C8604FF4806008617A
:1022A000084604F034FD1020FFF7B5FF044614B1D2
:1022B0002046BDE8FC81C54800880004C24908608A
:1022C00037204860402088600020C8604FF480605C
:1022D0000861084604F01BFD3720FFF79CFF044609
:1022E0000CB12046E5E74FF0FF30B94908600820FF
:1022F0004860302088600220C8600020086101200A
:102300004861084604F02FFD0020AF4908603320E3
:102310004860402088600020C8604FF480600861F9
:10232000084604F0F4FC3320FFF775FF04460CB1B7
:102330002046BEE70DE04FF4001004F07BFD40B1F5
:102340009E48803000684DF82600761C022E00D38F
:1023500007E09A483430006840F22A6108400028BB
:10236000E9D000BF082004F065FD20B1082004F08A
:102370006CFD04209DE7022004F05CFD20B10220EA
:1023800004F063FD022094E7202004F053FD20B107
:10239000202004F05AFD06208BE74FF4007004F073
:1023A00049FD28B14FF4007004F04FFD072080E78D
:1023B00040F2FF5004F049FD00980006009901F436
:1023C0007F4140EA0120009901F47F0140EA112099
:1023D000009940EA1160686001980006019901F4D3
:1023E0007F4140EA0120019901F47F0140EA112078
:1023F000019940EA1160286020465AE77CB50546FD
:10240000002400200090019000260DB1022600E07B
:1024100000266A481430006800F0007008B10E20F1
:102420007CBD6A49098888B26946FFF724FF0446E3
:102430000CB12046F4E7019800F4802060B36348B3
:1024400000880004604908603720486040208860A8
:102450000020C8604FF480600861084604F057FC13
:102460003720FFF7D8FE04460CB12046D8E756487F
:102470000660062054494860402088600020C860FB
:102480004FF480600861084604F041FC0620FFF725
:10249000C2FE04462046C3E72520C1E770B50446C6
:1024A00000254C480078032802D12725284670BD16
:1024B0004848007838B147480078012803D045489B
:1024C0000078022819D1B4F5805F02D1272528466B
:1024D000EDE7E0B2FFF792FF054675B93748001DFA
:1024E000006820F4C0503549091D0860084600689E
:1024F000204308600846006808602846D7E710B502
:1025000004463148046007202F4948604020886015
:102510000020C8604FF480600861084604F0F7FBB3
:102520000720FFF778FE10BDF0B50146002000221D
:10253000284B1B7881F85630244B1B88A1F8543067
:10254000254B1B681A0E93090B70C2F383034B7063
:1025500002F003038B70204B1B68C3F30742CA7061
:102560001D4B1B88C3F307220A711B4B1A784A7153
:102570005B681A0E1301CB80174B5B68C3F30742ED
:10258000CB8843EA1213CB8002F00F030B72124B7D
:102590009B88C3F30722D3094B72C2F380138B725B
:1025A000C2F34013CB72C2F300130B7300234B73BF
:1025B000084B1B78C3B1074B1B780FE0002C014080
:1025C000FF07C00020000020D8C300201C0000200E
:1025D000ECC300201800002004C40020012B03D00D
:1025E000FE4B1B78032B4FD193071B0D0B61FC4B4C
:1025F0001A790B6943EA82030B61F94B9B681A0E47
:102600000B6943EA92130B61C2F3C2030B7502F02C
:1026100007034B75F24B9B68C3F3074253098B7555
:10262000C2F38203CB7593075B0F0B76EC4B1B89D0
:10263000C3F307220B7E43EAD2130B760B695B1CB4
:102640000024C1E912340B7E9B1C012404FA03F31D
:10265000DC17D1E91256A5FB037C06FB03C305FB7F
:102660000433C1E912730C7A0123A3400B650024E3
:10267000D1E912650B6DA6FB037C05FB03C306FBCA
:102680000433C1E912732EE0D44B1B78022B2AD1FC
:10269000D34B1A7993069B0A0B61D14B9B681A0E98
:1026A0000B6943EA02230B61CD4B9B68C3F30742DE
:1026B0000B6913430B61CA4B1B89C3F307220B69D8
:1026C0005B1C4FF40074A3FB04464FF480630025A9
:1026D000A4FB037C06FB03C304FB0533C1E91273AF
:1026E0004FF400730B65C2F3801301F8193F930692
:1026F0005B0E4B70BA4B1A7A4B7843EAD2134B708D
:1027000002F07F038B70B64BDB681A0ED309CB70D7
:10271000C2F341130B71C2F382034B7193071B0F7A
:102720008B71AF4BDB68C3F307428B7943EA92139B
:102730008B71C2F34013CB7100230B7202F00103C3
:102740004B72A74B9B89C3F30722D3098B72C2F349
:102750008013CB72C2F340130B73C2F300134B739D
:10276000C2F381038B7302F00303CB739C4B1A7B80
:1027700053080B7401234B749A4B1B681A0ECA74CE
:102780001939984B1B68C3F307421402CC85954B4B
:102790001B88C3F30722CB8D1343CB85914B1A784B
:1027A00014060C635B681A0E0B6B43EA02440C635D
:1027B0008C4B5B68C3F307420B6B43EA02240C6348
:1027C000884B9B88C3F307220B6B13430B63854B2A
:1027D0001A7934235A54834B9B681A0E35235A5462
:1027E000804B9B68C3F3074214068C637D4B1B89A7
:1027F000C3F307228B6B43EA02448C63794B1A7A4A
:102800008B6B43EA02248C63764BDB681A0E8B6B6E
:1028100013438B63734BDB68C3F307423C235B5C5E
:1028200043EA12143C235C5413071C0DCC876D4BF8
:102830009B89C3F30722CB8F1343CB87694B1A7B4A
:10284000540840235C54012441235C54F0BD70B50E
:1028500000264FF4803505E06348046804F0450025
:1028600000B103E0281EA5F10105F5D100BF15B1A7
:1028700004F0040028B10326042004F0E6FA3046F0
:1028800070BD012004F0D6FA18B10126012004F031
:10289000DCFA40F2FF5004F0D8FA3046F0E72DE9B8
:1028A000F04105460E464FF0000805E04E48076827
:1028B00007F0450000B100E0F8E700BF042004F095
:1028C000B9FA28B1042004F0C0FA0320BDE8F08171
:1028D000012004F0AFFA20B1012004F0B6FA012083
:1028E000F4E7414824380068A84201D01020EDE701
:1028F00040F2FF5004F0A9FA3B482038046804F481
:10290000604018B9200C30804046DFE704F40050E6
:1029100008B11320DAE704F4804008B11020D5E7AD
:1029200004F4004008B10F20D0E74046CEE738B5A8
:1029300000240120009004F0E4F910B92524204679
:1029400038BD26480078042825D000202749086093
:1029500002204860C02088600020C8604FF480607A
:102960000861084604F0D3F9FFF771FF04460CB183
:102970002046E5E71C48203800681A4908601A48D4
:102980001C38006848601848183800688860164885
:1029900014380068C8601148007858B10F480078B2
:1029A000012807D00D480078062803D00B4800788E
:1029B000022821D100200D490860032048604020F2
:1029C00088600020C8604FF480600861084604F009
:1029D0009EF969460320FFF762FF09E01800002016
:1029E00004C4002014C40020342C0140D8C30020AB
:1029F00004460CB12046A3E7FE480078032816D110
:102A0000BDF800000004FC49086003204860402035
:102A100088600020C8604FF480600861084604F0B8
:102A200076F9FFF714FF04460CB1204688E7F14819
:102A3000007804282AD0BDF80000F0490860BDF8ED
:102A400000000004EC49086009204860C02088604C
:102A50000020C8604FF480600861084604F057F910
:102A6000FFF7F5FE04460CB1204669E7E44800682C
:102A7000E4490860E248001D00684860E04808300A
:102A800000688860DE480C300068C860002057E7A6
:102A900010B506E0DA482030046804F0450000B1C3
:102AA00000E0F7E700BF042004F0C4F920B10420DF
:102AB00004F0CBF9032010BD40F2FF5004F0C5F93B
:102AC0000020F8E770B500264FF4803506E0CC48CA
:102AD0002030046804F0450000B103E0281EA5F191
:102AE0000105F4D100BF15B104F0040028B103269C
:102AF000042004F0AAF9304670BD04F0400018B17B
:102B00000026402004F0A1F93046F5E770B5002515
:102B10004FF4803404E0802004F08CF900B103E02D
:102B2000201EA4F10104F6D100BF0CB9032070BD32
:102B300040F2FF5004F089F92846F8E72DE9F04704
:102B40000027002400260025A046A1467620AE4995
:102B500008750020086048608860C8600861084601
:102B600004F0ABF8032004F0C8F8A548103800685A
:102B700040F48070A2491039086000BF12E00020C4
:102B80009D49086048608860C8604FF480600861B3
:102B9000084604F0BCF8FFF7B9FF044604B903E0A7
:102BA000781CC7B24A2FEADB00BF14B12046BDE84B
:102BB000F0874FF4D57090490860082048604020A5
:102BC00088600020C8604FF480600861084604F007
:102BD0009EF8FFF777FF044624B901208549087065
:102BE0004FF0804900208449086037204860402029
:102BF00088600020C8604FF480600861084604F0D7
:102C000086F83720FFF707FB0446002C4BD134E051
:102C10000020794908603720486040208860002003
:102C2000C8604FF480600861084604F070F83720EF
:102C3000FFF7F1FA04460CB12046B8E7734849EAB9
:102C400000006D490860292048604020886000200D
:102C5000C8604FF480600861084604F058F8FFF738
:102C600017FF04460CB12046A1E76548066801201D
:102C700080EAD67080F001086D1CB8F1000F03D116
:102C80004FF6FF708542C3D34FF6FF70854202D3E3
:102C90001B2420468BE706F08040061E32D002201F
:102CA000544908702EE01CE059485349086001203F
:102CB0004860402088600020C8604FF48060086150
:102CC000084604F024F8FFF7E3FE04460CB1204662
:102CD0006DE74B480668012080EAD67080F0010855
:102CE0006D1CB8F1000F03D14FF6FF708542DBD3A6
:102CF0004FF6FF70854202D31B24204657E703207E
:102D00003C490870204652E73EB5002400250121C9
:102D1000404802F0C9FA0121C80202F01FFB01215C
:102D2000C80202F070FB4FF4F850019002208DF8B9
:102D300008008DF8090000208DF80A0001208DF8A8
:102D40000B0001A9344802F011F80420019001A9F8
:102D5000324802F00BF80C2208212F4802F091F8BB
:102D60000C2209212C4802F08CF80C220A212A4856
:102D700002F087F80C220B21274802F082F80C227F
:102D80001146254802F07DF80C220221234802F06A
:102D900078F800214FF4006002F035FBFFF710FADD
:102DA00031208DF8000000208DF801008DF8020020
:102DB00001208DF80300684601F0E7FEFFF7BEFE34
:102DC000044614B9FFF7B3FD04461CB91448FFF7D5
:102DD000ABFB044634B91249B1F854100804FFF7AC
:102DE0008EFB044624B94FF40060FFF757FB0446FE
:102DF000E4B117E018000020D8C300201C00002018
:102E0000142C014004C40020C0C300200000108026
:102E10000080FF800C00400000080240000C0240CF
:102E200028C40020FE480078032812D1FD4890F8FD
:102E3000560020B1FB4890F85600012801D1042526
:102E400000E004252846FFF7DDF90020FFF7D0F960
:102E5000044620463EBD10B5002003F04EFF002082
:102E600010BD70B590B004460E46154600BFEE4842
:102E700004F02FF90028FAD1EB4804F001F84FF0E4
:102E800000600190E94802900394049500200590A9
:102E900006904FF4806007908000089080000990B1
:102EA00000200A904FF440300B9004200C90032037
:102EB0000D904FF400000E9080100F9001A9DA4899
:102EC00004F080F82021D84804F0CCF80121D6483D
:102ED00004F0B2F810B070BD0146002002E04910C5
:102EE000421CD0B20129FAD170472DE9F84F814632
:102EF000174698460A9C4FF0000AD3464D464FF0BD
:102F0000FF36B9F1000F02D12620BDE8F88F00206E
:102F1000C64954390860C2480078022805D1040225
:102F2000780A40EAC8574FEA68280020C0498860FC
:102F30004860401E0860012048610020C8600861A8
:102F4000084603F010FFB9486C38006800F00070C4
:102F500008B10E20D9E7002C21DDB4F5006F1EDC8E
:102F6000601E2040D8B92046FFF7B6FF0090B14858
:102F700004601020AF494860402088600020C8608D
:102F80004FF480600861084603F0C1FE1020FFF78F
:102F900042F98246BAF1000F03D05046B5E7262029
:102FA000B3E700980001A2498860084644604FF0EA
:102FB000FF300860012048610220C86000200861DD
:102FC000084603F0D0FE9B480760112099494860ED
:102FD000402088600020C8604FF480600861084687
:102FE00003F095FE1120FFF716F98246BAF1000FA3
:102FF00001D0504689E79048007800285AD101F066
:103000003BFC17E04FF4004003F014FF70B14FF0A9
:10301000000B05E08548006845F82B000BF1010B1B
:10302000BBF1080FF6D32035844E03E00EB904201F
:103030006BE7761E7D484C38006840F22A610840F4
:103040000028DFD0082003F0F5FE20B1082003F0AF
:10305000FCFE042059E7022003F0ECFE20B1022020
:1030600003F0F3FE022050E7202003F0E3FE20B13E
:10307000202003F0EAFE062047E74FF4007003F03B
:10308000D9FE28B14FF4007003F0DFFE07203CE7C3
:1030900003E06648006828602D1D4FF4001003F01F
:1030A000C9FE0028F5D101F0E9FB40F2FF5003F022
:1030B000CCFE39E060480078012835D10020604915
:1030C00008706049087060490870584844380068C2
:1030D00040F22A310843554944390860534854386E
:1030E000006840F008005149543908600022214628
:1030F0004846FFF7B6FE00E0761E4B485838006899
:1031000000F0006038B95048007820B94C48007889
:1031100008B9002EF0D10EB90420F6E64848007830
:1031200010B1474890F800A05046EEE62DE9FF5F49
:1031300017469846DDE90E464FF00009CA464FF0A3
:10314000FF3542490098086000203849543908602A
:1031500033480078022805D10402780A40EAC857AB
:103160004FEA68280020324988604860401E0860A5
:10317000012048610020C8600861084603F0F3FDA3
:103180002A486C38006800F0007018B10E2004B0B6
:10319000BDE8F09F002C21DDB4F5006F1EDC601E41
:1031A0002040D8B92046FFF797FE834621480460A7
:1031B000102020494860402088600020C8604FF4FB
:1031C00080600861084603F0A2FD1020FFF723F895
:1031D0008146B9F1000F03D04846D8E72620D6E74C
:1031E000012E6ED906FB04F0B0F1007F01D326203A
:1031F000CDE74FEA0B100E49886006FB04F04860EB
:103200004FF0FF300860012048610220C8600020B4
:103210000861084603F0A7FD06480760122017E082
:103220001800002028C4002058640240802C01406F
:10323000ECC30020D8C3002020000020FFFF7F0047
:103240002200002021000020230000202400002074
:10325000F9494860402088600020C8604FF48060D1
:103260000861084603F053FD1220FEF7D4FF8146A3
:10327000B9F1000F01D0484689E7F04800780028EE
:103280007ED101F0F9FA1EE04FF4004003F0D2FDC8
:10329000A0B14FF0000A07E0E9480068E949096871
:1032A00041F82A000AF1010ABAF1080FF4D3E548FF
:1032B00000682030E3490860E34D04E015B90420BC
:1032C00065E7AEE06D1EDE484C38006840F22A31FA
:1032D00008400028D8D0082003F0ACFD20B1082019
:1032E00003F0B3FD042052E7022003F0A3FD20B158
:1032F000022003F0AAFD022049E7202003F09AFDF6
:1033000020B1202003F0A1FD062040E74FF400701B
:1033100003F090FD28B14FF4007003F096FD0720F4
:1033200035E709E0C6480068C64909680860C5482D
:103330000068001DC34908604FF4001003F07AFDD7
:103340000028EFD14FF4807003F074FD20B3BF4824
:10335000007838B1BD480078012803D0BB48007818
:10336000022819D10020B44908600C204860402090
:1033700088600020C8604FF480600861084600E063
:1033800011E003F0C4FC0C20FEF745FF8146B9F1C3
:10339000000F01D04846FAE601F070FA40F2FF5003
:1033A00003F053FD3DE0A5480078012839D1002005
:1033B000A74908700120A74908700020A649087095
:1033C0009F484438006840F22A3108439C494439F8
:1033D00008609B485438006840F008009849543908
:1033E000086006FB04F100220098FFF73AFD00E0B8
:1033F0006D1E9A48006800F0006008B9002DF7D1F2
:103400000DB90420C3E600BF9348007818B990486E
:1034100000780028F8D08E48007810B18C4890F8D9
:1034200000904846B3E61CB5044600200190009089
:103430008B4800880004804908600D2048604020C7
:1034400088600020C8604FF480600861084603F07F
:103450005EFC7B484C380068009003E078484C38AC
:1034600000680090009800F045000028F6D0012088
:1034700003F0E0FC20B1012003F0E7FC01201CBDBB
:10348000042003F0D7FC20B1042003F0DEFC03206D
:10349000F5E76B48703800680D2801D01020EEE782
:1034A00040F2FF5003F0D1FC65486C380068019091
:1034B0000198C0F3432020700020E0E72DE9FF5F72
:1034C00086B017469846149D00260020059004906B
:1034D000002481460390824602900195DDF818B0E1
:1034E000DDF818B0BBF1000F03D126200AB0BDE80B
:1034F000F09F00205249543908605A49886048605A
:10350000401E0860012048610020C860086108462C
:1035100003F029FC4A486C38006800F0007008B1DC
:103520000E20E3E749480078022805D10502780A11
:1035300040EAC8574FEA6828002D1FDDB5F5006F37
:103540001CDC681E2840C8B92846FFF7C5FC05905A
:1035500039480560102038494860402088600020C4
:10356000C8604FF480600861084603F0D0FB10206B
:10357000FEF751FE06461EB13046B7E72620B5E7F6
:103580003748008800042C4908600D20486040201E
:1035900088600020C8604FF480600861084603F02E
:1035A000B6FB0D20FEF737FE06460EB130469DE70E
:1035B00023486C38006803904FF0FF341CE0641E11
:1035C0002748008800041C4908600D2048604020FE
:1035D00088600020C8604FF480600861084603F0EE
:1035E00096FB0D20FEF717FE06460EB130467DE72E
:1035F00013486C3800680390039800F4807008B991
:10360000002CDCD10CB9292070E70B48076018208A
:1036100009494860402088600020C8604FF48060FD
:103620000861084603F073FB1820FEF7F4FD064618
:10363000D6B130465AE70000D8C300202000002051
:10364000802C014024000020FFFF7F001800002094
:1036500022000020210000202300002000640240FE
:103660001C000020ECC300200020F84908700598D9
:103670000001F7498860084645604FF0FF30086058
:10368000012048610020C8600861084603F06BFB18
:103690004FF0FF34EF48007800287CD101F0ECF8BF
:1036A00043E04FF4804003F0C5FBC8B30198A0EBA2
:1036B0000900202821D20198A0EB090000F00300A6
:1036C00020B90198A0EB0900800804E00198A0EB64
:1036D00009008008401C02904FF0000A09E0DE4912
:1036E000DBF8000008600AF1010A0BF1040B09F194
:1036F000040902988245F2D30FE04FF0000A05E07A
:103700005BF82A00D44908600AF1010ABAF1080FEF
:10371000F6D30BF1200B09F120096FF0404404E0CF
:10372000FFE70CB90420E1E6641ECB484C38006882
:1037300040F21A6108400028B3D0082003F07AFB59
:1037400020B1082003F081FB0420CFE6022003F023
:1037500071FB20B1022003F078FB0220C6E61020A6
:1037600003F068FB20B1102003F06FFB0520BDE6DD
:103770004FF4007003F05EFB30B14FF4007003F0C3
:1037800064FB0720B2E606E001F078F840F2FF5053
:1037900003F05BFB43E0AF48007801283FD10020F5
:1037A000AE490870A9490870AD490870AA48443864
:1037B000006840F21A310843A749443908604022A2
:1037C00029460698FFF74DFBA3485438006840F09F
:1037D0000800A1495439086000E0641EA14800684F
:1037E00000F0006008B9002CF7D11CB9FFF78CFA83
:1037F00004207BE64FF0FF3400E0641E9848007818
:1038000020B99648007808B9002CF6D10CB90420EC
:103810006CE69248007810B19048007866E640F275
:10382000FF5003F012FB04A8FFF7FDFD064603E07E
:1038300004A8FFF7F8FD06463EB99DF810000728DA
:10384000F6D09DF810000628F2D030464EE610B5AE
:103850004FF4807003F0EEFA88B37C4800780128BA
:1038600014D10020804908600C2048604020886006
:103870000020C8604FF480600861084603F047FAF2
:103880000C20FEF7C8FC7549087002E0002073495F
:10389000087071484838006840F480706E494839B3
:1038A0000860081D00684CF23A3188436A4944397F
:1038B000086001206A4908706848007810BDFFE779
:1038C000022003F0B7FA78B1022003F0BEFA624892
:1038D000443800684CF23A3188435F494439086003
:1038E00002205E490870E9E7082003F0A3FA78B1E6
:1038F000082003F0AAFA5848443800684CF23A31DC
:103900008843554944390860042054490870D5E774
:10391000202003F08FFA78B1202003F096FA4E4869
:10392000443800684CF23A3188434B4944390860C6
:1039300006204A490870C1E7102003F07BFA78B1ED
:10394000102003F082FA4448443800684CF23A31BF
:103950008843414944390860052040490870ADE773
:103960004FF4007003F066FA80B14FF4007003F07A
:103970006CFA3948443800684CF23A318843364989
:103980004439086007203549087097E7002095E71B
:1039900010B5FFF75CFF10BD70B50446002514B9E3
:1039A0002625284670BD3148008800042E4908604D
:1039B0000D204860402088600020C8604FF480607F
:1039C0000861084603F0A3F90D20FEF724FC054624
:1039D0000DB12846E6E720486C380068206028468C
:1039E000E0E708B5002000906846FFF7D5FF08B172
:1039F000FF2008BD0098C0F34320FAE72DE9FE4FF1
:103A000006460F4690460020029000253C46184886
:103A1000007818B1680240EAD455640206F0030049
:103A200098B14FF0000A37E04FF4007000904FEA71
:103A30004A2010EB040B45EBE0735A460D48FFF7A4
:103A400054FA02904FF000091DE028E02100002008
:103A5000ECC3002020000020802C01402200002028
:103A60002300002000640240D8C300201C00002076
:103A70001800002080C400201D4810F8090006F836
:103A8000090009F10109B9F5007FF5DB06F50076BB
:103A90000AF1010000F0FF0AC245C5DB16E0B8F1EB
:103AA000010F09D14FF4007022462B46009030469A
:103AB000FFF71BFA029009E04FF4007022462B46F4
:103AC000CDE900083046FFF731FB02900298BDE8CF
:103AD000FE8F10B5FFF718F910BD70B505460E46FC
:103AE0001446E2B231462846FFF788FF70BD000059
:103AF00080C40020142000E000BF011EA0F10100DE
:103B0000FADC704770B50446FFF7F4FF00251AE0B1
:103B100000207B490860FFF7EDFF04F0010020B1B1
:103B200001207749091D086003E000207449091D40
:103B30000860FFF7DFFF6410012071490860FFF79C
:103B4000D9FF681CC5B2082DE2DB70BD70B500243A
:103B5000FFF7D0FF01206A49091D0860002514E025
:103B60006410FFF7C7FF002065490860FFF7C2FF38
:103B70006448D0F8180208B144F08004FFF7BAFF97
:103B800001205F490860681CC5B2082DE8DB2046AB
:103B900070BD38B50024002059490C390860422016
:103BA000FFF7B0FFFFF7D2FF8DF80000FFF7CEFF61
:103BB0008DF80100FFF7CAFF8DF80200FFF7C6FF7E
:103BC0008DF8030001204F49C1F888029DF80000DC
:103BD00004439DF8010044EA4000C4B29DF802008D
:103BE00044EA8000C4B29DF8030044EAC000C4B2B5
:103BF000204638BD70B504460D46002040490C39BA
:103C000008604420FFF77EFFFFF774FF01203D4965
:103C1000C1F8880200203A490C390860C02141EA05
:103C20004401C8B2FFF76EFF2846FFF76BFF012083
:103C30003449C1F8880270BD70B504460D4635B1EF
:103C40006100491CC8B20121FFF7D4FF05E0610003
:103C5000491CC8B20021FFF7CDFF70BD1CB5012182
:103C6000102001F021FB6420009001208DF8040059
:103C700000208DF8060002208DF8050069462248D4
:103C800001F074F84021204801F0ECF820211E4892
:103C900001F0E8F804211C4801F0E4F81CBD10B55F
:103CA000FFF7DCFF002016490C3908608B20FFF776
:103CB00029FFFFF71FFF01201249C1F888020020E9
:103CC0000F490C3908604020FFF71CFFFFF712FF77
:103CD00001200B490C39086000200860C020FFF764
:103CE00011FF002404E00020FFF70CFF601CC4B2A9
:103CF000102CF8DB012002490C39086010BD0000CF
:103D00009402424200004242001002400146854AAD
:103D100002EB8100D0F80002C0B270471CB501214F
:103D2000102001F0C1FA1820009000208DF8040046
:103D30008DF8050001208DF8070069467A4801F0EA
:103D400015F81CBD2DE9F04107462FB138698047B1
:103D50004FF4FA70B968884700249FE0734800EB7D
:103D600044100069002872D0704A02EB4412107BA4
:103D70006E4A02EB44121169884705466B4800EB16
:103D800044104668694800EB44100178A94215D0F8
:103D9000A6B94EB90B20654901EB44114860634850
:103DA00000EB4410057008E00020604901EB44116D
:103DB00048605E4800EB441005706EE055BB4EBB9A
:103DC0005A4800EB44108068002808DD574800EB93
:103DD00044108068401C554901EB441188605348E9
:103DE00000EB44108068B0F5C87F12DB00204F491B
:103DF00001EB441188604D4800EB4410C06940B1AC
:103E00004A4A02EB4412107B484A02EB4412D16941
:103E1000884742E0454800EB44100078A8422BD187
:103E2000012E29D1A5B9414800EB4410406940B1A9
:103E30003E4A02EB4412107B3C4A02EB44125169A9
:103E400088470A20394901EB441188600EE023E0DD
:103E5000364800EB4410806940B1344A02EB44120A
:103E6000107B324A02EB44129169884700202F49A7
:103E700001EB4411486010E02C4800EB441000783E
:103E8000A84209D146B1294800EB44104068401EC1
:103E9000264901EB4411486000BF641C022CFFF46A
:103EA0005DAFBDE8F08110B503460C46002122E06D
:103EB0001E4800EB4110007B98421BD1012C04D01E
:103EC000022C08D0032C12D10BE0184800EB411053
:103ED0004261002010BD154800EB411082610020B6
:103EE000F8E7124800EB4110C2610020F2E74FF002
:103EF000FF30EFE7491C0229DAD34FF0FF30E9E742
:103F000010B5044614B94FF0FF3010BD606880470B
:103F1000AFF2CF1060614FF4FA70A16888470020BB
:103F2000F3E7000000004242001002402800002099
:103F30001FB54FF0804002F063F80121084601F000
:103F4000FCF91C208DF8000002208DF801000120F2
:103F50008DF802008DF80300684600F016FE42F26C
:103F60000F7002905320ADF804000020ADF80C0053
:103F7000ADF8060001A94FF0804002F0EEF80121F3
:103F8000880702F055F90121880702F0AFFD0021F2
:103F90004FF0804002F02AF901221146900702F00A
:103FA0007DFD4FF08040008840F008004FF08041D8
:103FB00008800846008820F0010008801FBD3EB53B
:103FC00004464FF0804002F01BF8601E019040F262
:103FD0004730ADF800000020ADF80800ADF8020051
:103FE00069464FF0804002F0B8F84FF080400088FA
:103FF00040F080004FF08041088000200882084691
:10400000808940F0010088810020486208460088CD
:1040100040F0090008803EBD00204FF0804148621A
:104020000846008840F00100088070474FF080404B
:10403000008820F001004FF080410880704710B5E3
:1040400000204FF080410882A948406910B1A8487B
:104050004169884710BD1FB5A64801F0D1FF012175
:10406000022001F06AF91D208DF8000002208DF871
:1040700001008DF8020001208DF80300684600F071
:1040800084FD44F61F6002905320ADF80400002028
:10409000ADF80C00ADF8060001A9964802F05DF8F5
:1040A0000121944802F0C4F80121924802F00AFD6F
:1040B0000121904802F01AFD00218E4802F096F886
:1040C000012211468B4802F0E9FC8A48008840F042
:1040D0000800884908800846008820F00100088010
:1040E0001FBD3EB50446834801F08AFF601E019063
:1040F00040F24730ADF800000020ADF80800ADF800
:10410000020069467B4802F028F87A48008840F0AF
:104110008000784908800020764910310880081F07
:10412000008840F00100091F0880002071492431F7
:1041300008607048008840F009006E4908803EBD64
:1041400000206C49243108606A48008840F0010072
:104150006849088070476748008820F00100654979
:104160000880704710B50121624802F0BFFC624828
:10417000406910B160484169884710BD1FB55F486C
:1041800001F03EFF0121042001F0D7F81E208DF838
:10419000000002208DF8010003208DF802000120AC
:1041A0008DF80300684600F0F0FC44F61F600290B2
:1041B0005320ADF804000020ADF80C00ADF8060067
:1041C00001A94E4801F0C9FF01214C4802F030F826
:1041D00001214A4802F076FC0121484802F086FCA1
:1041E0000021464802F002F801221146434802F03D
:1041F00055FC4248008840F00800404908800846C5
:10420000008820F0010008801FBD3EB504463B48F1
:1042100001F0F6FE601E019040F24730ADF800005C
:104220000020ADF80800ADF802006946334801F0FF
:1042300094FF3248008840F0800030490880002018
:104240002E4910310880081F008840F00100091F26
:10425000088000202949243108602848008840F05F
:104260000900264908803EBD002024492431086009
:104270002248008840F001002049088070471F480C
:10428000008820F001001D490880704710B5012109
:104290001A4802F02BFC1A48406910B118484169CD
:1042A000884710BD70B500250CE0164850F8254031
:1042B000606820B1606880470020206001E0FF2036
:1042C00020606D1C032DF0D370BD002209E00D4865
:1042D00050F82210086818B9012008600846704795
:1042E000521C032AF3D30020F9E700210160704734
:1042F000680000200004004080000020000800400A
:1043000098000020B000002070B588B004460D462B
:1043100016460121084600F0C7FF0121102001F0D8
:104320001DF807220A21EA4800F0ABFD0722092107
:10433000E74800F0A6FD4FF4C060069002208DF81B
:104340001C0003208DF81D0000208DF81E000120A8
:104350008DF81F0006A9DE4800F008FD0294002039
:10436000ADF80C00ADF80E00ADF81000ADF814007B
:104370000C20ADF8120002A9D64801F09AF90121EB
:10438000D44801F01EFA4021D24801F002FB00227D
:1043900040F22661CF4801F0CAFA012240F22551CD
:1043A000CC4801F0C4FA25208DF8040001208DF8D6
:1043B000050003208DF8060001208DF8070001A8F4
:1043C00000F0E3FB08B070BD0021C348B0F80E0256
:1043D000C14AB2F81022904201D1481E7047BE482F
:1043E000B0F8102200F58770815CBB48B0F810026D
:1043F000401CB94AA2F810021046B0F81002FF287B
:1044000002DD0020A2F810020846E7E710B50446D6
:1044100000E000BF4021AF4801F0AEFA0028F8D01C
:104420002146AC4801F0F8F910BD70B505460024EE
:104430000CE000E000BF4021A64801F09DFA0028F2
:10444000F8D0295DA34801F0E7F9641C285D002835
:10445000EFD1204670BD70B5064600259E48D0F8C5
:104460001C0208B9002070BD09E09B49D1F81C026C
:1044700080470446002C00DA02E074556D1CF4E716
:1044800000BF2846EFE770B506460C460025002C15
:1044900015DD9148D0F8200288B100BF0BE0715DB6
:1044A0008C4801F0B9F900BF40218A4801F064FA54
:1044B0000028F9D06D1C201EA4F10104EFDC284671
:1044C00070BD70B506460D460024002D36DD00BFD8
:1044D0001FE0315D8048B0F80A210A3081540A3863
:1044E000B0F80A01401C7C49A1F80A010846B0F85E
:1044F0000A01FF2802DD0020A1F80A017648B0F881
:104500000A017549B1F80C11884201D1002070BD33
:10451000641CAC42DDDB7048B0F80C210A30815CD1
:104520006C4801F079F9012240F22661694801F0F6
:10453000FEF940F22661674801F06FFA2046E6E78F
:1045400070B505460C46322C04DA21462846FFF7A2
:104550009AFF70BD21462846FFF7B3FFF9E72DE922
:10456000F04104460D4616460027DFF86C8100BF77
:1045700003E0002008F8010B7F1CB7F50B7FF8D390
:104580005548446001460D724E72AFF2C310C1F837
:104590001C02AFF28710C1F82002AFF24510C1F83B
:1045A0002402AFF26300C1F828020B465A7A197A46
:1045B0005868FFF7A9FEBDE8F08170B504460D46C6
:1045C0001646454B5A7A197A5868FFF79DFE70BD1A
:1045D00010B540F225513F4801F0E4F900283FD0E2
:1045E00040F225513B4801F018FA3A4801F018F919
:1045F000C4B23948B0F80E1200F5877044543648FA
:10460000B0F80E02401C3449A1F80E020846B0F87A
:104610000E02FF2802DD0020A1F80E022E48B0F89D
:104620000E022D49B1F8101288420ED12A48B0F876
:104630001002401C2849A1F810020846B0F81002E8
:10464000FF2802DD0020A1F810022348D0F8140250
:1046500028B121480021D0F814222046904700BFFD
:1046600040F226611B4801F09DF918B340F2266123
:10467000184801F0D2F91848B0F80C01401C16494E
:10468000A1F80C010846B0F80C01FF2802DD00205B
:10469000A1F80C011048B0F80A010F49B1F80C114B
:1046A000884208D00C48B0F80C210A30815C0948D7
:1046B00001F0B2F80AE0002240F22661054801F05C
:1046C00036F940F22661034801F0A7F910BD000059
:1046D000000002400010014080C6002010B50120FB
:1046E0005949086059480068A8B1594800685949B3
:1046F000096888420BDA584855490968405C5749AF
:10470000086053480068401C5149086007E00020D9
:104710005249086003E052480068504908604F4819
:10472000006800F00100C0434E490860042002F018
:10473000FAFD4D48006840F0F0004B49086010BD9C
:1047400010B54648006840490968084100F001007A
:10475000C043444908603C480068082804DA3A48E5
:104760000068401C38490860082002F0DCFD3E4823
:10477000006840F00F003C49086010BD00B585B0EE
:104780000121084600F090FD0C20009000208DF8DB
:10479000040003208DF8050002208DF8070069460B
:1047A000324800F0E3FA0220009001208DF8040066
:1047B0008DF8060003208DF8050002208DF8070013
:1047C00069462A4800F0D2FA0221284800F04CFB42
:1047D0000121880300F0C2FD0221002000F0C9FE83
:1047E0000321002000F0C5FE0C20029000208DF86F
:1047F0000C0008208DF80D0001208DF80E0002A895
:1048000002F020FD08208DF8100000208DF8110026
:1048100002208DF8120001208DF8130004A800F08A
:10482000B4F900201249086009208DF8100000201A
:104830008DF8110001208DF812008DF8130004A8E6
:1048400000F0A3F905B000BDC80000200000002062
:10485000C40000201400002000010020BC00002043
:104860000400002084024042CC00002000000240EE
:10487000C000002030BF704772B6704762B6704704
:10488000704700BFFEE700BFFEE700BFFEE700BFC6
:10489000FEE770477047704729480068401C284968
:1048A0000860704770B50446002025490860642000
:1048B0006043C108481EB0F1807F00D31BE0481E52
:1048C0004FF0E022506150170F22002807DA13073B
:1048D0001E0E1C4B00F00F052D1F5E5503E0130745
:1048E0001D0E194B1D5400BF00204FF0E0229061B7
:1048F0000720106100BF6FF0040000F093F970BD55
:1049000010B50F4B1A6800F163036424B3FBF4F194
:1049100001B910BD00E000BF094B1B689B1A8B4218
:10492000F9D900BFF5E7064A116800E000BF044A64
:104930001268521A00EB8003B2EB430FF6D97047AE
:10494000D000002018ED00E000E400E00CB50020ED
:10495000019000907648006840F480307449086007
:1049600000BF7348006800F4003000900198401CBC
:104970000190009818B90198B0F5A04FF1D16C489A
:10498000006800F4003010B10120009001E0002028
:1049900000900098012846D165484030006840F0FA
:1049A00080506349403108606248006840F44040EC
:1049B000604908605E48083000685D490831086059
:1049C0000846006840F4004008600846006840F46B
:1049D000A05008605848091F0860081F006840F090
:1049E0008070091F086000BF5148006800F0007027
:1049F0000028F9D040F20570504908604C48083052
:104A0000006820F003004A49083108600846006841
:104A100040F00200086000BF45480830006800F020
:104A20000C000828F8D10CBD10B54548006840F4CA
:104A30007000434908603E48006840F001003C496E
:104A4000086000203A4908310860394800683D494B
:104A50000840374908603C48091D0860081F006885
:104A600020F48020091F0860002031490C310860C3
:104A7000FFF76CFF4FF0006031498039086010BDCE
:104A800070B500200022022300240221284D0835A1
:104A90002D6805F00C0020B1042806D0082834D178
:104AA00007E02A4D2A4E356033E02A4D284E356006
:104AB0002FE01F4D2D1D2D68C5F380541C4D2D1D5D
:104AC0002D6805F03F0154B1224DB5FBF1F5184EAC
:104AD000361D3668C6F3881605FB06F209E01B4D45
:104AE000B5FBF1F5124E361D3668C6F3881605FB88
:104AF00006F20F4D2D1D2D68C5F301456D1C6B0091
:104B0000B2FBF3F5124E356003E0104D104E3560E8
:104B100000BF00BF064D08352D68C5F303150E4EC6
:104B2000705D0B4D2D68C540094E356070BD0000AD
:104B3000003802400070004008544007003C02402A
:104B400088ED00E0FFFFF6FE103000240024F400A2
:104B5000D400002000127A00D800002006488047C8
:104B600006480047FEE7FEE7FEE7FEE7FEE7FEE752
:104B7000FEE7FEE7FEE7FEE7294A00088901000894
:104B800032490143324A1160704770B50021002359
:104B90000F22C4781CB32E4C246804F4E064C4F5DE
:104BA000E064C4F30721C1F10404E3B20A4144788C
:104BB0009C40E1B28478144021430C07210E254C1F
:104BC00005786155047804F01F050124AC40057890
:104BD0006D11AD0005F1E025C5F8004109E004784C
:104BE00004F01F050124AC401B4D0678761145F8F2
:104BF000264070BD194A0A400243154B1B1F1A601C
:104C0000704739B1124A121D12680243104B1B1D26
:104C10001A6006E00E4A121D126882430C4B1B1DDF
:104C20001A607047042808D14FF0E021096941F06B
:104C300004014FF0E022116107E04FF0E021096923
:104C400021F004014FF0E022116170470000FA05E5
:104C50000CED00E000E400E080E100E080FFFF1FD9
:104C600010B504469848844208D10121084600F056
:104C700086FB0021012000F082FB76E0934884420D
:104C800008D10121022000F07AFB0021022000F06F
:104C900076FB6AE08E48844208D10121042000F0AE
:104CA0006EFB0021042000F06AFB5EE0894884422C
:104CB00008D10121082000F062FB0021082000F04B
:104CC0005EFB52E08448844208D10121102000F0AC
:104CD00056FB0021102000F052FB46E07F48844242
:104CE00008D10121202000F04AFB0021202000F003
:104CF00046FB3AE07A48844208D10121402000F086
:104D00003EFB0021402000F03AFB2EE07548844233
:104D100008D10121802000F032FB0021802000F02A
:104D20002EFB22E07048844208D10121801500F05A
:104D300026FB0021A01500F022FB16E06B48844200
:104D400008D10121401500F01AFB0021601500F088
:104D500016FB0AE06648844207D10121001500F0E5
:104D60000EFB0021201500F00AFB10BDF0B50A462D
:104D700000210023002400BF3DE0012505FA01F3D6
:104D8000156805EA03049C4234D105684F000326E8
:104D9000BE40B543056015794E00B5400668354301
:104DA00005601579012D02D01579022D16D185687F
:104DB0004F000326BE40B543856055794E00B5408F
:104DC000866835438560456801268E40B543456059
:104DD000456896798E40B6B235434560C5684F0048
:104DE0000326BE40B543C560D5794E00B540C668C0
:104DF0003543C560491C1029BFD3F0BD4FF6FF7184
:104E000001600021017141718171C171704708B564
:104E10004FF480320092009A0A430092009AC261D5
:104E2000C161009AC261C2690092C269009208BD64
:104E30000246002013690B400BB1012000E0002066
:104E400070470146086980B27047024600205369E6
:104E50000B400BB1012000E000207047014648697B
:104E600080B2704701837047418370470AB1018364
:104E700000E0418370474161704742694A404261A6
:104E80007047F0B5002300244D07ED0E02FA05F33C
:104E9000CE1000F1200555F826504E07F70E0F26CC
:104EA000BE40B543CF1000F1200646F82750CE1083
:104EB00000F1200555F8265045EA0304CE1000F114
:104EC000200545F82640F0BD0000024000040240E5
:104ED00000080240000C0240001002400014024092
:104EE00000180240001C0240002002400024024042
:104EF00000280240F948006840F00100F7490860C6
:104F00000020F64908310860F4480068F449084078
:104F1000F2490860F348091D0860F348EF498431FD
:104F20000860F0481038091D0860EC48006820F45B
:104F30008020EA4908600020E8490C310860E74910
:104F40008C31086070470021E44A921C11701146B0
:104F50000870704710B501460022002300204A1156
:104F6000012A02D1DD4C236808E0022A03D1DB4C80
:104F70007034236802E0D94C7434236801F01F02B6
:104F8000012494401C400CB1012000E0002010BD21
:104F900038B5002000900024002500BF3120FFF725
:104FA000D9FF05460098401C00900098B0F5A04F2E
:104FB00001D0002DF2D03120FFF7CCFF08B1012441
:104FC00000E00024204638BD01460020C34A106896
:104FD00020F0F80040EAC10010607047C349086043
:104FE00070470021BD4A703211701170012802D043
:104FF00004280AD104E00121B84A7032117005E09A
:105000000521B64A7032117000E000BF00BF704742
:10501000B7490860704770B5049C41EA82150126C3
:10502000C6EB530645EA0645054345EA0465AB4E23
:10503000361D356070BDAD4908667047820142EA91
:105040000172A64B84331A607047A849886670477E
:1050500010B5830143EA016343EA02739F4C88342D
:10506000236010BDA14908677047A049C864704714
:1050700002460020994B0833186820F0EC6042EAA1
:1050800001031843954B083318607047024600200F
:10509000924B0833186820F0784042EA0103184325
:1050A0008E4B083318607047014600208B4A083247
:1050B000106820F0030008431060704787480830EC
:1050C000006800F00C00704701460020834A083257
:1050D000106820F0F000084310607047014600207F
:1050E0007E4A0832106820F4E05008431060704790
:1050F00001460020794A0832106820F4604040EAF6
:10510000C10010607047F0B5002100220024022584
:1051100000260223714F08373F6807F00C0121B1C8
:10512000042905D0082937D105E0724F076036E021
:10513000714F076033E0694F3F1D3F68C7F38056EA
:10514000664F3F1D3F6807F03F036EB16A4FB7FBE4
:10515000F3F7DFF888C10CF1040CDCF800C0CCF3E5
:10516000881C07FB0CF40CE0624FB7FBF3F7DFF889
:105170006CC10CF1040CDCF800C0CCF3881C07FBFC
:105180000CF4564F3F1D3F68C7F301477F1C7D005D
:10519000B4FBF5F7076002E0564F076000BF00BFA1
:1051A0004E4F08373F6807F0F0010909534F7A5C0A
:1051B0000768D7404760494F08373F6807F4E05118
:1051C000890A4E4F7A5C4768D7408760434F08375B
:1051D0003F6807F46041490B484F7A5C4768D74005
:1051E000C760F0BD002100F44072B2F5407F0AD1E3
:1051F0003A4A0832116821F4F811414A0240114339
:10520000364A08321160354A70321268C0F30B0317
:105210001A43324B70331A6070473549443908607D
:105220007047334940390860704736490860704715
:1052300001460020294A8C32106820F01F004A1EC7
:105240001043264A8C321060704701460020234AE2
:105250008C32106820F4F8504A1E40EA02201F4A9F
:105260008C3210607047014600201C4A8C32106856
:1052700020F4401008431060704701460020174A90
:105280008C32106820F440000843106070470146DB
:105290000020124A8C32106820F44030084310601D
:1052A000704719490860704739B10C4A30321268AA
:1052B00002430A4B30331A6006E0084A3032126863
:1052C0008243064B30331A607047F9B1034A3432D7
:1052D00012680243014B34331A601CE0003802406C
:1052E000FFFFF6EA103000240030002000004742A3
:1052F000800E47420024F40000127A00E8000020EB
:10530000FFFCFF0F5C014742E01147428F4A1268E1
:1053100082438E4B1A60704739B18C4A121D126855
:1053200002438A4B1B1D1A6006E0884A121D126850
:105330008243864B1B1D1A60704739B1834A0C3279
:1053400012680243814B0C331A6006E07F4A0C322C
:10535000126882437D4B0C331A60704739B17B4A27
:10536000103212680243794B10331A6006E0774A14
:10537000103212688243754B10331A60704739B18E
:10538000724A243A12680243704B243B1A6006E0CA
:105390006E4A243A126882436C4B243B1A60704771
:1053A00039B16A4A203A12680243684B203B1A60BE
:1053B00006E0664A203A12688243644B203B1A603A
:1053C000704739B1614A1C3A126802435F4B1C3B7B
:1053D0001A6006E05D4A1C3A126882435B4B1C3B34
:1053E0001A60704739B1594A143A12680243574B50
:1053F000143B1A6006E0554A143A12688243534B34
:10540000143B1A60704739B1504A103A126802438F
:105410004E4B103B1A6006E04C4A103A1268824329
:105420004A4B103B1A60704739B1484A1C32126827
:105430000243464B1C331A6006E0444A1C32126891
:105440008243424B1C331A60704739B13F4A2032C5
:10545000126802433D4B20331A6006E03B4A20327B
:1054600012688243394B20331A60704739B1374A8A
:10547000243212680243354B24331A6006E0334A63
:10548000243212688243314B24331A60704739B199
:105490002E4A2C32126802432C4B2C331A6006E041
:1054A0002A4A2C3212688243284B2C331A607047E8
:1054B00039B1264A303212680243244B30331A6025
:1054C00006E0224A303212688243204B30331A60A1
:1054D0007047012808D11D493C31096841F0080195
:1054E0001A4A3C32116007E018493C31096821F042
:1054F0000801164A3C321160704739B1134A273A05
:1055000012780243114B273B1A7006E00F4A273AE4
:10551000127882430D4B273B1A7070470B4840307E
:10552000006840F0807009494031086070470146CA
:105530000020064A283A12680A400AB1012000E019
:1055400000207047014926390870704734380240FE
:1055500010B501218803FFF756FF00214FF480406A
:10556000FFF751FF10BD1C49086070471B490862D6
:10557000704730B500228B071C0F0F2303FA04F28B
:10558000154B08338C1053F824309343124C0834D5
:105590008D1044F8253023468C1053F824308C07A6
:1055A000240F00FA04F423430B4C08348D1044F804
:1055B000253030BD0949DC31086070470849086072
:1055C0007047002004492031096801F4807109B155
:1055D000012000E000207047003801400000274211
:1055E0000004274210B50446FA48844208D101213C
:1055F0001020FFF708FF00211020FFF704FF57E0FD
:10560000F548844209D101214804FFF7EBFE00214F
:105610004FF40030FFF7E6FE4AE0F048844209D13B
:1056200001218804FFF7DEFE00214FF48020FFF700
:10563000D9FE3DE0EA48844209D10121C804FFF7C0
:10564000D1FE00214FF40020FFF7CCFE30E0E5480A
:10565000844209D101210805FFF7C4FE00214FF45F
:105660008010FFF7BFFE23E0DF48844208D101210C
:105670002020FFF7C8FE00212020FFF7C4FE17E01E
:10568000DA48844209D101218807FFF7ABFE0021E7
:105690004FF08040FFF7A6FE0AE0D548844207D1CC
:1056A00001214005FFF79EFE00216005FFF79AFEED
:1056B00010BD2DE9FF4705460E460024A14600BF58
:1056C000A046B08900B100BF2C8A24F44054F08871
:1056D00004432C82AC8941F20C608443B088318948
:1056E0000843718908430443AC81AC8A24F44074B4
:1056F000B0890443AC826846FFF705FDB548854292
:1057000002D0B948854202D1DDF80C9001E0DDF805
:105710000890A88900F4004040B109EBC90000EBF3
:10572000091031684900B0FBF1F707E009EBC90047
:1057300000EB091031688900B0FBF1F76420B7FB7A
:10574000F0F004012009642101FB1078A88900F41D
:10575000004040B1322000EBC800B0FBF1F000F097
:105760000700044308E0322000EB08106421B0FB7E
:10577000F1F000F00F0004432C81BDE8FF874FF4E7
:105780001651016000218180C18001810C2141817D
:1057900000218181704710B502460020108A20F454
:1057A00070600B884C8823438C882343CC88234328
:1057B0001843108210BD0021018041808180C1808A
:1057C000704721B1828942F40052828104E08289CB
:1057D0004DF6FF731A4082817047028B02F47F42BC
:1057E0000283028B0A430283704721B1828942F40B
:1057F0000042828103E08289C2F30E0282817047F7
:1058000021B1828A42F40062828204E0828A4FF2ED
:10581000FF731A4082827047C1F30802828070478A
:1058200001468888C0F308007047028A4FF6F0737B
:105830001A400282028A0A430282704721B1828999
:1058400042F00202828104E082894FF6FD731A4021
:105850008281704782894FF2FF731A408281828968
:105860000A4382817047028A4FF6DF731A40028230
:10587000028A0A430282704721B1028A42F48042BE
:10588000028204E0028A4BF6FF731A4002827047DC
:10589000818941F001018181704721B1828A42F002
:1058A0000802828204E0828A4FF6F7731A408282ED
:1058B0007047028BD2B20283028B42EA012202833A
:1058C000704721B1828A42F02002828204E0828AFB
:1058D0004FF6DF731A408282704721B1828A42F00C
:1058E0001002828204E0828A4FF6EF731A408282AD
:1058F0007047828A4FF6FB731A408282828A0A437B
:105900008282704721B1828A42F00202828204E0E0
:10591000828A4FF6FD731A40828270471AB1838AD9
:105920000B43838202E0838A8B4383827047F0B506
:105930000346002400260025002040F66A17B942DD
:1059400000D100BF1846C1F3421401F01F06012721
:1059500007FA06F5012C01D10C3004E0022C01D12C
:10596000103000E014301AB107682F43076002E0DE
:105970000768AF430760F0BD02460020B1F5007F25
:1059800000D100BF13880B400BB1012000E00020C4
:10599000704701F40072B2F5007F00D100BFCA4326
:1059A0000280704770B502460024002300250020C5
:1059B00040F66A16B14200D100BFC1F3421501F0B2
:1059C0001F03012606FA03F3012D13D196893340F4
:1059D00017E0000000100140004400400048004073
:1059E000004C00400050004000140140007800408E
:1059F000007C0040022D02D1168A334001E0968AD5
:105A000033400C12012606FA04F41688344013B110
:105A10000CB1012000E0002070BD10B50022002371
:105A200040F66A14A14200D100BF0A12012494403A
:105A3000A3B2DC43048010BD30B943F2DB02810025
:105A4000A1F1C0410A6005E043F2D2028100A1F158
:105A5000C0410A606FF07042411C8900A1F1C04151
:105A60000A608100A1F1C041C1F804217047D0E96A
:105A700001121143C2681143026911434269114383
:105A800082691143C2691143026A1143426A114398
:105A9000826A1143C26A1143026B11430268920089
:105AA000A2F1C0421160816808290BD10168890008
:105AB000A1F1C041096841F0400201688900A1F1EB
:105AC000C0410A60416B0968426B526841EA0211A9
:105AD000426B926841EA0221426B928941EA02419B
